{"contracts/entityStorage.sol":{"EntityStorage":{"abi":[{"anonymous":false,"inputs":[{"indexed":true,"internalType":"string","name":"txHash","type":"string"},{"indexed":false,"internalType":"string","name":"description","type":"string"}],"name":"DocumentStored","type":"event"},{"inputs":[{"internalType":"string","name":"","type":"string"}],"name":"documents","outputs":[{"internalType":"string","name":"ipfsHash","type":"string"},{"internalType":"string","name":"md5Hash","type":"string"},{"internalType":"string","name":"description","type":"string"},{"internalType":"bool","name":"exists","type":"bool"},{"internalType":"uint256","name":"timestamp","type":"uint256"}],"stateMutability":"view","type":"function"},{"inputs":[{"internalType":"string","name":"_txHash","type":"string"}],"name":"getDocument","outputs":[{"internalType":"string","name":"","type":"string"},{"internalType":"string","name":"","type":"string"},{"internalType":"string","name":"","type":"string"},{"internalType":"uint256","name":"","type":"uint256"}],"stateMutability":"view","type":"function"},{"inputs":[{"internalType":"string","name":"_txHash","type":"string"},{"internalType":"string","name":"_ipfsHash","type":"string"},{"internalType":"string","name":"_md5Hash","type":"string"},{"internalType":"string","name":"_description","type":"string"}],"name":"storeDocument","outputs":[],"stateMutability":"nonpayable","type":"function"}],"evm":{"bytecode":{"linkReferences":{},"object":"608060405234801561001057600080fd5b50610f22806100206000396000f3fe608060405234801561001057600080fd5b50600436106100415760003560e01c80637ccb6a6414610046578063b3dd697b14610079578063c7f75340146100ad575b600080fd5b610060600480360381019061005b919061082c565b6100c9565b604051610070949392919061090d565b60405180910390f35b610093600480360381019061008e919061082c565b610368565b6040516100a4959493929190610982565b60405180910390f35b6100c760048036038101906100c291906109ea565b610559565b005b6060806060600080856040516100df9190610afd565b908152602001604051809103902060030160009054906101000a900460ff1661013d576040517f08c379a000000000000000000000000000000000000000000000000000000000815260040161013490610b60565b60405180910390fd5b6000808660405161014e9190610afd565b90815260200160405180910390206040518060a001604052908160008201805461017790610baf565b80601f01602080910402602001604051908101604052809291908181526020018280546101a390610baf565b80156101f05780601f106101c5576101008083540402835291602001916101f0565b820191906000526020600020905b8154815290600101906020018083116101d357829003601f168201915b5050505050815260200160018201805461020990610baf565b80601f016020809104026020016040519081016040528092919081815260200182805461023590610baf565b80156102825780601f1061025757610100808354040283529160200191610282565b820191906000526020600020905b81548152906001019060200180831161026557829003601f168201915b5050505050815260200160028201805461029b90610baf565b80601f01602080910402602001604051908101604052809291908181526020018280546102c790610baf565b80156103145780601f106102e957610100808354040283529160200191610314565b820191906000526020600020905b8154815290600101906020018083116102f757829003601f168201915b505050505081526020016003820160009054906101000a900460ff16151515158152602001600482015481525050905080600001518160200151826040015183608001519450945094509450509193509193565b6000818051602081018201805184825260208301602085012081835280955050505050506000915090508060000180546103a190610baf565b80601f01602080910402602001604051908101604052809291908181526020018280546103cd90610baf565b801561041a5780601f106103ef5761010080835404028352916020019161041a565b820191906000526020600020905b8154815290600101906020018083116103fd57829003601f168201915b50505050509080600101805461042f90610baf565b80601f016020809104026020016040519081016040528092919081815260200182805461045b90610baf565b80156104a85780601f1061047d576101008083540402835291602001916104a8565b820191906000526020600020905b81548152906001019060200180831161048b57829003601f168201915b5050505050908060020180546104bd90610baf565b80601f01602080910402602001604051908101604052809291908181526020018280546104e990610baf565b80156105365780601f1061050b57610100808354040283529160200191610536565b820191906000526020600020905b81548152906001019060200180831161051957829003601f168201915b5050505050908060030160009054906101000a900460ff16908060040154905085565b6000846040516105699190610afd565b908152602001604051809103902060030160009054906101000a900460ff16156105c8576040517f08c379a00000000000000000000000000000000000000000000000000000000081526004016105bf90610c2c565b60405180910390fd5b6040518060a00160405280848152602001838152602001828152602001600115158152602001428152506000856040516106029190610afd565b908152602001604051809103902060008201518160000190816106259190610df8565b50602082015181600101908161063b9190610df8565b5060408201518160020190816106519190610df8565b5060608201518160030160006101000a81548160ff021916908315150217905550608082015181600401559050508360405161068d9190610afd565b60405180910390207f4f63b101254c6d55638976c7c7b2e44ff57476ecf4c4c9cdc27cf3049e21c250826040516106c49190610eca565b60405180910390a250505050565b6000604051905090565b600080fd5b600080fd5b600080fd5b600080fd5b6000601f19601f8301169050919050565b7f4e487b7100000000000000000000000000000000000000000000000000000000600052604160045260246000fd5b610739826106f0565b810181811067ffffffffffffffff8211171561075857610757610701565b5b80604052505050565b600061076b6106d2565b90506107778282610730565b919050565b600067ffffffffffffffff82111561079757610796610701565b5b6107a0826106f0565b9050602081019050919050565b82818337600083830152505050565b60006107cf6107ca8461077c565b610761565b9050828152602081018484840111156107eb576107ea6106eb565b5b6107f68482856107ad565b509392505050565b600082601f830112610813576108126106e6565b5b81356108238482602086016107bc565b91505092915050565b600060208284031215610842576108416106dc565b5b600082013567ffffffffffffffff8111156108605761085f6106e1565b5b61086c848285016107fe565b91505092915050565b600081519050919050565b600082825260208201905092915050565b60005b838110156108af578082015181840152602081019050610894565b60008484015250505050565b60006108c682610875565b6108d08185610880565b93506108e0818560208601610891565b6108e9816106f0565b840191505092915050565b6000819050919050565b610907816108f4565b82525050565b6000608082019050818103600083015261092781876108bb565b9050818103602083015261093b81866108bb565b9050818103604083015261094f81856108bb565b905061095e60608301846108fe565b95945050505050565b60008115159050919050565b61097c81610967565b82525050565b600060a082019050818103600083015261099c81886108bb565b905081810360208301526109b081876108bb565b905081810360408301526109c481866108bb565b90506109d36060830185610973565b6109e060808301846108fe565b9695505050505050565b60008060008060808587031215610a0457610a036106dc565b5b600085013567ffffffffffffffff811115610a2257610a216106e1565b5b610a2e878288016107fe565b945050602085013567ffffffffffffffff811115610a4f57610a4e6106e1565b5b610a5b878288016107fe565b935050604085013567ffffffffffffffff811115610a7c57610a7b6106e1565b5b610a88878288016107fe565b925050606085013567ffffffffffffffff811115610aa957610aa86106e1565b5b610ab5878288016107fe565b91505092959194509250565b600081905092915050565b6000610ad782610875565b610ae18185610ac1565b9350610af1818560208601610891565b80840191505092915050565b6000610b098284610acc565b915081905092915050565b7f446f63756d656e746f206e6f6e2074726f7661746f0000000000000000000000600082015250565b6000610b4a601583610880565b9150610b5582610b14565b602082019050919050565b60006020820190508181036000830152610b7981610b3d565b9050919050565b7f4e487b7100000000000000000000000000000000000000000000000000000000600052602260045260246000fd5b60006002820490506001821680610bc757607f821691505b602082108103610bda57610bd9610b80565b5b50919050565b7f446f63756d656e746f2067696127206573697374656e74650000000000000000600082015250565b6000610c16601883610880565b9150610c2182610be0565b602082019050919050565b60006020820190508181036000830152610c4581610c09565b9050919050565b60008190508160005260206000209050919050565b60006020601f8301049050919050565b600082821b905092915050565b600060088302610cae7fffffffffffffffffffffffffffffffffffffffffffffffffffffffffffffffff82610c71565b610cb88683610c71565b95508019841693508086168417925050509392505050565b6000819050919050565b6000610cf5610cf0610ceb846108f4565b610cd0565b6108f4565b9050919050565b6000819050919050565b610d0f83610cda565b610d23610d1b82610cfc565b848454610c7e565b825550505050565b600090565b610d38610d2b565b610d43818484610d06565b505050565b5b81811015610d6757610d5c600082610d30565b600181019050610d49565b5050565b601f821115610dac57610d7d81610c4c565b610d8684610c61565b81016020851015610d95578190505b610da9610da185610c61565b830182610d48565b50505b505050565b600082821c905092915050565b6000610dcf60001984600802610db1565b1980831691505092915050565b6000610de88383610dbe565b9150826002028217905092915050565b610e0182610875565b67ffffffffffffffff811115610e1a57610e19610701565b5b610e248254610baf565b610e2f828285610d6b565b600060209050601f831160018114610e625760008415610e50578287015190505b610e5a8582610ddc565b865550610ec2565b601f198416610e7086610c4c565b60005b82811015610e9857848901518255600182019150602085019450602081019050610e73565b86831015610eb55784890151610eb1601f891682610dbe565b8355505b6001600288020188555050505b505050505050565b60006020820190508181036000830152610ee481846108bb565b90509291505056fea26469706673582212201224f0b7c88b290722b68cb95f0e111d80843f648d5ff3041a4107c67cb00d6e64736f6c63430008180033","opcodes":"PUSH1 0x80 PUSH1 0x40 MSTORE CALLVALUE DUP1 ISZERO PUSH2 0x10 JUMPI PUSH1 0x0 DUP1 REVERT JUMPDEST POP PUSH2 0xF22 DUP1 PUSH2 0x20 PUSH1 0x0 CODECOPY PUSH1 0x0 RETURN INVALID PUSH1 0x80 PUSH1 0x40 MSTORE CALLVALUE DUP1 ISZERO PUSH2 0x10 JUMPI PUSH1 0x0 DUP1 REVERT JUMPDEST POP PUSH1 0x4 CALLDATASIZE LT PUSH2 0x41 JUMPI PUSH1 0x0 CALLDATALOAD PUSH1 0xE0 SHR DUP1 PUSH4 0x7CCB6A64 EQ PUSH2 0x46 JUMPI DUP1 PUSH4 0xB3DD697B EQ PUSH2 0x79 JUMPI DUP1 PUSH4 0xC7F75340 EQ PUSH2 0xAD JUMPI JUMPDEST PUSH1 0x0 DUP1 REVERT JUMPDEST PUSH2 0x60 PUSH1 0x4 DUP1 CALLDATASIZE SUB DUP2 ADD SWAP1 PUSH2 0x5B SWAP2 SWAP1 PUSH2 0x82C JUMP JUMPDEST PUSH2 0xC9 JUMP JUMPDEST PUSH1 0x40 MLOAD PUSH2 0x70 SWAP5 SWAP4 SWAP3 SWAP2 SWAP1 PUSH2 0x90D JUMP JUMPDEST PUSH1 0x40 MLOAD DUP1 SWAP2 SUB SWAP1 RETURN JUMPDEST PUSH2 0x93 PUSH1 0x4 DUP1 CALLDATASIZE SUB DUP2 ADD SWAP1 PUSH2 0x8E SWAP2 SWAP1 PUSH2 0x82C JUMP JUMPDEST PUSH2 0x368 JUMP JUMPDEST PUSH1 0x40 MLOAD PUSH2 0xA4 SWAP6 SWAP5 SWAP4 SWAP3 SWAP2 SWAP1 PUSH2 0x982 JUMP JUMPDEST PUSH1 0x40 MLOAD DUP1 SWAP2 SUB SWAP1 RETURN JUMPDEST PUSH2 0xC7 PUSH1 0x4 DUP1 CALLDATASIZE SUB DUP2 ADD SWAP1 PUSH2 0xC2 SWAP2 SWAP1 PUSH2 0x9EA JUMP JUMPDEST PUSH2 0x559 JUMP JUMPDEST STOP JUMPDEST PUSH1 0x60 DUP1 PUSH1 0x60 PUSH1 0x0 DUP1 DUP6 PUSH1 0x40 MLOAD PUSH2 0xDF SWAP2 SWAP1 PUSH2 0xAFD JUMP JUMPDEST SWAP1 DUP2 MSTORE PUSH1 0x20 ADD PUSH1 0x40 MLOAD DUP1 SWAP2 SUB SWAP1 KECCAK256 PUSH1 0x3 ADD PUSH1 0x0 SWAP1 SLOAD SWAP1 PUSH2 0x100 EXP SWAP1 DIV PUSH1 0xFF AND PUSH2 0x13D JUMPI PUSH1 0x40 MLOAD PUSH32 0x8C379A000000000000000000000000000000000000000000000000000000000 DUP2 MSTORE PUSH1 0x4 ADD PUSH2 0x134 SWAP1 PUSH2 0xB60 JUMP JUMPDEST PUSH1 0x40 MLOAD DUP1 SWAP2 SUB SWAP1 REVERT JUMPDEST PUSH1 0x0 DUP1 DUP7 PUSH1 0x40 MLOAD PUSH2 0x14E SWAP2 SWAP1 PUSH2 0xAFD JUMP JUMPDEST SWAP1 DUP2 MSTORE PUSH1 0x20 ADD PUSH1 0x40 MLOAD DUP1 SWAP2 SUB SWAP1 KECCAK256 PUSH1 0x40 MLOAD DUP1 PUSH1 0xA0 ADD PUSH1 0x40 MSTORE SWAP1 DUP2 PUSH1 0x0 DUP3 ADD DUP1 SLOAD PUSH2 0x177 SWAP1 PUSH2 0xBAF JUMP JUMPDEST DUP1 PUSH1 0x1F ADD PUSH1 0x20 DUP1 SWAP2 DIV MUL PUSH1 0x20 ADD PUSH1 0x40 MLOAD SWAP1 DUP2 ADD PUSH1 0x40 MSTORE DUP1 SWAP3 SWAP2 SWAP1 DUP2 DUP2 MSTORE PUSH1 0x20 ADD DUP3 DUP1 SLOAD PUSH2 0x1A3 SWAP1 PUSH2 0xBAF JUMP JUMPDEST DUP1 ISZERO PUSH2 0x1F0 JUMPI DUP1 PUSH1 0x1F LT PUSH2 0x1C5 JUMPI PUSH2 0x100 DUP1 DUP4 SLOAD DIV MUL DUP4 MSTORE SWAP2 PUSH1 0x20 ADD SWAP2 PUSH2 0x1F0 JUMP JUMPDEST DUP3 ADD SWAP2 SWAP1 PUSH1 0x0 MSTORE PUSH1 0x20 PUSH1 0x0 KECCAK256 SWAP1 JUMPDEST DUP2 SLOAD DUP2 MSTORE SWAP1 PUSH1 0x1 ADD SWAP1 PUSH1 0x20 ADD DUP1 DUP4 GT PUSH2 0x1D3 JUMPI DUP3 SWAP1 SUB PUSH1 0x1F AND DUP3 ADD SWAP2 JUMPDEST POP POP POP POP POP DUP2 MSTORE PUSH1 0x20 ADD PUSH1 0x1 DUP3 ADD DUP1 SLOAD PUSH2 0x209 SWAP1 PUSH2 0xBAF JUMP JUMPDEST DUP1 PUSH1 0x1F ADD PUSH1 0x20 DUP1 SWAP2 DIV MUL PUSH1 0x20 ADD PUSH1 0x40 MLOAD SWAP1 DUP2 ADD PUSH1 0x40 MSTORE DUP1 SWAP3 SWAP2 SWAP1 DUP2 DUP2 MSTORE PUSH1 0x20 ADD DUP3 DUP1 SLOAD PUSH2 0x235 SWAP1 PUSH2 0xBAF JUMP JUMPDEST DUP1 ISZERO PUSH2 0x282 JUMPI DUP1 PUSH1 0x1F LT PUSH2 0x257 JUMPI PUSH2 0x100 DUP1 DUP4 SLOAD DIV MUL DUP4 MSTORE SWAP2 PUSH1 0x20 ADD SWAP2 PUSH2 0x282 JUMP JUMPDEST DUP3 ADD SWAP2 SWAP1 PUSH1 0x0 MSTORE PUSH1 0x20 PUSH1 0x0 KECCAK256 SWAP1 JUMPDEST DUP2 SLOAD DUP2 MSTORE SWAP1 PUSH1 0x1 ADD SWAP1 PUSH1 0x20 ADD DUP1 DUP4 GT PUSH2 0x265 JUMPI DUP3 SWAP1 SUB PUSH1 0x1F AND DUP3 ADD SWAP2 JUMPDEST POP POP POP POP POP DUP2 MSTORE PUSH1 0x20 ADD PUSH1 0x2 DUP3 ADD DUP1 SLOAD PUSH2 0x29B SWAP1 PUSH2 0xBAF JUMP JUMPDEST DUP1 PUSH1 0x1F ADD PUSH1 0x20 DUP1 SWAP2 DIV MUL PUSH1 0x20 ADD PUSH1 0x40 MLOAD SWAP1 DUP2 ADD PUSH1 0x40 MSTORE DUP1 SWAP3 SWAP2 SWAP1 DUP2 DUP2 MSTORE PUSH1 0x20 ADD DUP3 DUP1 SLOAD PUSH2 0x2C7 SWAP1 PUSH2 0xBAF JUMP JUMPDEST DUP1 ISZERO PUSH2 0x314 JUMPI DUP1 PUSH1 0x1F LT PUSH2 0x2E9 JUMPI PUSH2 0x100 DUP1 DUP4 SLOAD DIV MUL DUP4 MSTORE SWAP2 PUSH1 0x20 ADD SWAP2 PUSH2 0x314 JUMP JUMPDEST DUP3 ADD SWAP2 SWAP1 PUSH1 0x0 MSTORE PUSH1 0x20 PUSH1 0x0 KECCAK256 SWAP1 JUMPDEST DUP2 SLOAD DUP2 MSTORE SWAP1 PUSH1 0x1 ADD SWAP1 PUSH1 0x20 ADD DUP1 DUP4 GT PUSH2 0x2F7 JUMPI DUP3 SWAP1 SUB PUSH1 0x1F AND DUP3 ADD SWAP2 JUMPDEST POP POP POP POP POP DUP2 MSTORE PUSH1 0x20 ADD PUSH1 0x3 DUP3 ADD PUSH1 0x0 SWAP1 SLOAD SWAP1 PUSH2 0x100 EXP SWAP1 DIV PUSH1 0xFF AND ISZERO ISZERO ISZERO ISZERO DUP2 MSTORE PUSH1 0x20 ADD PUSH1 0x4 DUP3 ADD SLOAD DUP2 MSTORE POP POP SWAP1 POP DUP1 PUSH1 0x0 ADD MLOAD DUP2 PUSH1 0x20 ADD MLOAD DUP3 PUSH1 0x40 ADD MLOAD DUP4 PUSH1 0x80 ADD MLOAD SWAP5 POP SWAP5 POP SWAP5 POP SWAP5 POP POP SWAP2 SWAP4 POP SWAP2 SWAP4 JUMP JUMPDEST PUSH1 0x0 DUP2 DUP1 MLOAD PUSH1 0x20 DUP2 ADD DUP3 ADD DUP1 MLOAD DUP5 DUP3 MSTORE PUSH1 0x20 DUP4 ADD PUSH1 0x20 DUP6 ADD KECCAK256 DUP2 DUP4 MSTORE DUP1 SWAP6 POP POP POP POP POP POP PUSH1 0x0 SWAP2 POP SWAP1 POP DUP1 PUSH1 0x0 ADD DUP1 SLOAD PUSH2 0x3A1 SWAP1 PUSH2 0xBAF JUMP JUMPDEST DUP1 PUSH1 0x1F ADD PUSH1 0x20 DUP1 SWAP2 DIV MUL PUSH1 0x20 ADD PUSH1 0x40 MLOAD SWAP1 DUP2 ADD PUSH1 0x40 MSTORE DUP1 SWAP3 SWAP2 SWAP1 DUP2 DUP2 MSTORE PUSH1 0x20 ADD DUP3 DUP1 SLOAD PUSH2 0x3CD SWAP1 PUSH2 0xBAF JUMP JUMPDEST DUP1 ISZERO PUSH2 0x41A JUMPI DUP1 PUSH1 0x1F LT PUSH2 0x3EF JUMPI PUSH2 0x100 DUP1 DUP4 SLOAD DIV MUL DUP4 MSTORE SWAP2 PUSH1 0x20 ADD SWAP2 PUSH2 0x41A JUMP JUMPDEST DUP3 ADD SWAP2 SWAP1 PUSH1 0x0 MSTORE PUSH1 0x20 PUSH1 0x0 KECCAK256 SWAP1 JUMPDEST DUP2 SLOAD DUP2 MSTORE SWAP1 PUSH1 0x1 ADD SWAP1 PUSH1 0x20 ADD DUP1 DUP4 GT PUSH2 0x3FD JUMPI DUP3 SWAP1 SUB PUSH1 0x1F AND DUP3 ADD SWAP2 JUMPDEST POP POP POP POP POP SWAP1 DUP1 PUSH1 0x1 ADD DUP1 SLOAD PUSH2 0x42F SWAP1 PUSH2 0xBAF JUMP JUMPDEST DUP1 PUSH1 0x1F ADD PUSH1 0x20 DUP1 SWAP2 DIV MUL PUSH1 0x20 ADD PUSH1 0x40 MLOAD SWAP1 DUP2 ADD PUSH1 0x40 MSTORE DUP1 SWAP3 SWAP2 SWAP1 DUP2 DUP2 MSTORE PUSH1 0x20 ADD DUP3 DUP1 SLOAD PUSH2 0x45B SWAP1 PUSH2 0xBAF JUMP JUMPDEST DUP1 ISZERO PUSH2 0x4A8 JUMPI DUP1 PUSH1 0x1F LT PUSH2 0x47D JUMPI PUSH2 0x100 DUP1 DUP4 SLOAD DIV MUL DUP4 MSTORE SWAP2 PUSH1 0x20 ADD SWAP2 PUSH2 0x4A8 JUMP JUMPDEST DUP3 ADD SWAP2 SWAP1 PUSH1 0x0 MSTORE PUSH1 0x20 PUSH1 0x0 KECCAK256 SWAP1 JUMPDEST DUP2 SLOAD DUP2 MSTORE SWAP1 PUSH1 0x1 ADD SWAP1 PUSH1 0x20 ADD DUP1 DUP4 GT PUSH2 0x48B JUMPI DUP3 SWAP1 SUB PUSH1 0x1F AND DUP3 ADD SWAP2 JUMPDEST POP POP POP POP POP SWAP1 DUP1 PUSH1 0x2 ADD DUP1 SLOAD PUSH2 0x4BD SWAP1 PUSH2 0xBAF JUMP JUMPDEST DUP1 PUSH1 0x1F ADD PUSH1 0x20 DUP1 SWAP2 DIV MUL PUSH1 0x20 ADD PUSH1 0x40 MLOAD SWAP1 DUP2 ADD PUSH1 0x40 MSTORE DUP1 SWAP3 SWAP2 SWAP1 DUP2 DUP2 MSTORE PUSH1 0x20 ADD DUP3 DUP1 SLOAD PUSH2 0x4E9 SWAP1 PUSH2 0xBAF JUMP JUMPDEST DUP1 ISZERO PUSH2 0x536 JUMPI DUP1 PUSH1 0x1F LT PUSH2 0x50B JUMPI PUSH2 0x100 DUP1 DUP4 SLOAD DIV MUL DUP4 MSTORE SWAP2 PUSH1 0x20 ADD SWAP2 PUSH2 0x536 JUMP JUMPDEST DUP3 ADD SWAP2 SWAP1 PUSH1 0x0 MSTORE PUSH1 0x20 PUSH1 0x0 KECCAK256 SWAP1 JUMPDEST DUP2 SLOAD DUP2 MSTORE SWAP1 PUSH1 0x1 ADD SWAP1 PUSH1 0x20 ADD DUP1 DUP4 GT PUSH2 0x519 JUMPI DUP3 SWAP1 SUB PUSH1 0x1F AND DUP3 ADD SWAP2 JUMPDEST POP POP POP POP POP SWAP1 DUP1 PUSH1 0x3 ADD PUSH1 0x0 SWAP1 SLOAD SWAP1 PUSH2 0x100 EXP SWAP1 DIV PUSH1 0xFF AND SWAP1 DUP1 PUSH1 0x4 ADD SLOAD SWAP1 POP DUP6 JUMP JUMPDEST PUSH1 0x0 DUP5 PUSH1 0x40 MLOAD PUSH2 0x569 SWAP2 SWAP1 PUSH2 0xAFD JUMP JUMPDEST SWAP1 DUP2 MSTORE PUSH1 0x20 ADD PUSH1 0x40 MLOAD DUP1 SWAP2 SUB SWAP1 KECCAK256 PUSH1 0x3 ADD PUSH1 0x0 SWAP1 SLOAD SWAP1 PUSH2 0x100 EXP SWAP1 DIV PUSH1 0xFF AND ISZERO PUSH2 0x5C8 JUMPI PUSH1 0x40 MLOAD PUSH32 0x8C379A000000000000000000000000000000000000000000000000000000000 DUP2 MSTORE PUSH1 0x4 ADD PUSH2 0x5BF SWAP1 PUSH2 0xC2C JUMP JUMPDEST PUSH1 0x40 MLOAD DUP1 SWAP2 SUB SWAP1 REVERT JUMPDEST PUSH1 0x40 MLOAD DUP1 PUSH1 0xA0 ADD PUSH1 0x40 MSTORE DUP1 DUP5 DUP2 MSTORE PUSH1 0x20 ADD DUP4 DUP2 MSTORE PUSH1 0x20 ADD DUP3 DUP2 MSTORE PUSH1 0x20 ADD PUSH1 0x1 ISZERO ISZERO DUP2 MSTORE PUSH1 0x20 ADD TIMESTAMP DUP2 MSTORE POP PUSH1 0x0 DUP6 PUSH1 0x40 MLOAD PUSH2 0x602 SWAP2 SWAP1 PUSH2 0xAFD JUMP JUMPDEST SWAP1 DUP2 MSTORE PUSH1 0x20 ADD PUSH1 0x40 MLOAD DUP1 SWAP2 SUB SWAP1 KECCAK256 PUSH1 0x0 DUP3 ADD MLOAD DUP2 PUSH1 0x0 ADD SWAP1 DUP2 PUSH2 0x625 SWAP2 SWAP1 PUSH2 0xDF8 JUMP JUMPDEST POP PUSH1 0x20 DUP3 ADD MLOAD DUP2 PUSH1 0x1 ADD SWAP1 DUP2 PUSH2 0x63B SWAP2 SWAP1 PUSH2 0xDF8 JUMP JUMPDEST POP PUSH1 0x40 DUP3 ADD MLOAD DUP2 PUSH1 0x2 ADD SWAP1 DUP2 PUSH2 0x651 SWAP2 SWAP1 PUSH2 0xDF8 JUMP JUMPDEST POP PUSH1 0x60 DUP3 ADD MLOAD DUP2 PUSH1 0x3 ADD PUSH1 0x0 PUSH2 0x100 EXP DUP2 SLOAD DUP2 PUSH1 0xFF MUL NOT AND SWAP1 DUP4 ISZERO ISZERO MUL OR SWAP1 SSTORE POP PUSH1 0x80 DUP3 ADD MLOAD DUP2 PUSH1 0x4 ADD SSTORE SWAP1 POP POP DUP4 PUSH1 0x40 MLOAD PUSH2 0x68D SWAP2 SWAP1 PUSH2 0xAFD JUMP JUMPDEST PUSH1 0x40 MLOAD DUP1 SWAP2 SUB SWAP1 KECCAK256 PUSH32 0x4F63B101254C6D55638976C7C7B2E44FF57476ECF4C4C9CDC27CF3049E21C250 DUP3 PUSH1 0x40 MLOAD PUSH2 0x6C4 SWAP2 SWAP1 PUSH2 0xECA JUMP JUMPDEST PUSH1 0x40 MLOAD DUP1 SWAP2 SUB SWAP1 LOG2 POP POP POP POP JUMP JUMPDEST PUSH1 0x0 PUSH1 0x40 MLOAD SWAP1 POP SWAP1 JUMP JUMPDEST PUSH1 0x0 DUP1 REVERT JUMPDEST PUSH1 0x0 DUP1 REVERT JUMPDEST PUSH1 0x0 DUP1 REVERT JUMPDEST PUSH1 0x0 DUP1 REVERT JUMPDEST PUSH1 0x0 PUSH1 0x1F NOT PUSH1 0x1F DUP4 ADD AND SWAP1 POP SWAP2 SWAP1 POP JUMP JUMPDEST PUSH32 0x4E487B7100000000000000000000000000000000000000000000000000000000 PUSH1 0x0 MSTORE PUSH1 0x41 PUSH1 0x4 MSTORE PUSH1 0x24 PUSH1 0x0 REVERT JUMPDEST PUSH2 0x739 DUP3 PUSH2 0x6F0 JUMP JUMPDEST DUP2 ADD DUP2 DUP2 LT PUSH8 0xFFFFFFFFFFFFFFFF DUP3 GT OR ISZERO PUSH2 0x758 JUMPI PUSH2 0x757 PUSH2 0x701 JUMP JUMPDEST JUMPDEST DUP1 PUSH1 0x40 MSTORE POP POP POP JUMP JUMPDEST PUSH1 0x0 PUSH2 0x76B PUSH2 0x6D2 JUMP JUMPDEST SWAP1 POP PUSH2 0x777 DUP3 DUP3 PUSH2 0x730 JUMP JUMPDEST SWAP2 SWAP1 POP JUMP JUMPDEST PUSH1 0x0 PUSH8 0xFFFFFFFFFFFFFFFF DUP3 GT ISZERO PUSH2 0x797 JUMPI PUSH2 0x796 PUSH2 0x701 JUMP JUMPDEST JUMPDEST PUSH2 0x7A0 DUP3 PUSH2 0x6F0 JUMP JUMPDEST SWAP1 POP PUSH1 0x20 DUP2 ADD SWAP1 POP SWAP2 SWAP1 POP JUMP JUMPDEST DUP3 DUP2 DUP4 CALLDATACOPY PUSH1 0x0 DUP4 DUP4 ADD MSTORE POP POP POP JUMP JUMPDEST PUSH1 0x0 PUSH2 0x7CF PUSH2 0x7CA DUP5 PUSH2 0x77C JUMP JUMPDEST PUSH2 0x761 JUMP JUMPDEST SWAP1 POP DUP3 DUP2 MSTORE PUSH1 0x20 DUP2 ADD DUP5 DUP5 DUP5 ADD GT ISZERO PUSH2 0x7EB JUMPI PUSH2 0x7EA PUSH2 0x6EB JUMP JUMPDEST JUMPDEST PUSH2 0x7F6 DUP5 DUP3 DUP6 PUSH2 0x7AD JUMP JUMPDEST POP SWAP4 SWAP3 POP POP POP JUMP JUMPDEST PUSH1 0x0 DUP3 PUSH1 0x1F DUP4 ADD SLT PUSH2 0x813 JUMPI PUSH2 0x812 PUSH2 0x6E6 JUMP JUMPDEST JUMPDEST DUP2 CALLDATALOAD PUSH2 0x823 DUP5 DUP3 PUSH1 0x20 DUP7 ADD PUSH2 0x7BC JUMP JUMPDEST SWAP2 POP POP SWAP3 SWAP2 POP POP JUMP JUMPDEST PUSH1 0x0 PUSH1 0x20 DUP3 DUP5 SUB SLT ISZERO PUSH2 0x842 JUMPI PUSH2 0x841 PUSH2 0x6DC JUMP JUMPDEST JUMPDEST PUSH1 0x0 DUP3 ADD CALLDATALOAD PUSH8 0xFFFFFFFFFFFFFFFF DUP2 GT ISZERO PUSH2 0x860 JUMPI PUSH2 0x85F PUSH2 0x6E1 JUMP JUMPDEST JUMPDEST PUSH2 0x86C DUP5 DUP3 DUP6 ADD PUSH2 0x7FE JUMP JUMPDEST SWAP2 POP POP SWAP3 SWAP2 POP POP JUMP JUMPDEST PUSH1 0x0 DUP2 MLOAD SWAP1 POP SWAP2 SWAP1 POP JUMP JUMPDEST PUSH1 0x0 DUP3 DUP3 MSTORE PUSH1 0x20 DUP3 ADD SWAP1 POP SWAP3 SWAP2 POP POP JUMP JUMPDEST PUSH1 0x0 JUMPDEST DUP4 DUP2 LT ISZERO PUSH2 0x8AF JUMPI DUP1 DUP3 ADD MLOAD DUP2 DUP5 ADD MSTORE PUSH1 0x20 DUP2 ADD SWAP1 POP PUSH2 0x894 JUMP JUMPDEST PUSH1 0x0 DUP5 DUP5 ADD MSTORE POP POP POP POP JUMP JUMPDEST PUSH1 0x0 PUSH2 0x8C6 DUP3 PUSH2 0x875 JUMP JUMPDEST PUSH2 0x8D0 DUP2 DUP6 PUSH2 0x880 JUMP JUMPDEST SWAP4 POP PUSH2 0x8E0 DUP2 DUP6 PUSH1 0x20 DUP7 ADD PUSH2 0x891 JUMP JUMPDEST PUSH2 0x8E9 DUP2 PUSH2 0x6F0 JUMP JUMPDEST DUP5 ADD SWAP2 POP POP SWAP3 SWAP2 POP POP JUMP JUMPDEST PUSH1 0x0 DUP2 SWAP1 POP SWAP2 SWAP1 POP JUMP JUMPDEST PUSH2 0x907 DUP2 PUSH2 0x8F4 JUMP JUMPDEST DUP3 MSTORE POP POP JUMP JUMPDEST PUSH1 0x0 PUSH1 0x80 DUP3 ADD SWAP1 POP DUP2 DUP2 SUB PUSH1 0x0 DUP4 ADD MSTORE PUSH2 0x927 DUP2 DUP8 PUSH2 0x8BB JUMP JUMPDEST SWAP1 POP DUP2 DUP2 SUB PUSH1 0x20 DUP4 ADD MSTORE PUSH2 0x93B DUP2 DUP7 PUSH2 0x8BB JUMP JUMPDEST SWAP1 POP DUP2 DUP2 SUB PUSH1 0x40 DUP4 ADD MSTORE PUSH2 0x94F DUP2 DUP6 PUSH2 0x8BB JUMP JUMPDEST SWAP1 POP PUSH2 0x95E PUSH1 0x60 DUP4 ADD DUP5 PUSH2 0x8FE JUMP JUMPDEST SWAP6 SWAP5 POP POP POP POP POP JUMP JUMPDEST PUSH1 0x0 DUP2 ISZERO ISZERO SWAP1 POP SWAP2 SWAP1 POP JUMP JUMPDEST PUSH2 0x97C DUP2 PUSH2 0x967 JUMP JUMPDEST DUP3 MSTORE POP POP JUMP JUMPDEST PUSH1 0x0 PUSH1 0xA0 DUP3 ADD SWAP1 POP DUP2 DUP2 SUB PUSH1 0x0 DUP4 ADD MSTORE PUSH2 0x99C DUP2 DUP9 PUSH2 0x8BB JUMP JUMPDEST SWAP1 POP DUP2 DUP2 SUB PUSH1 0x20 DUP4 ADD MSTORE PUSH2 0x9B0 DUP2 DUP8 PUSH2 0x8BB JUMP JUMPDEST SWAP1 POP DUP2 DUP2 SUB PUSH1 0x40 DUP4 ADD MSTORE PUSH2 0x9C4 DUP2 DUP7 PUSH2 0x8BB JUMP JUMPDEST SWAP1 POP PUSH2 0x9D3 PUSH1 0x60 DUP4 ADD DUP6 PUSH2 0x973 JUMP JUMPDEST PUSH2 0x9E0 PUSH1 0x80 DUP4 ADD DUP5 PUSH2 0x8FE JUMP JUMPDEST SWAP7 SWAP6 POP POP POP POP POP POP JUMP JUMPDEST PUSH1 0x0 DUP1 PUSH1 0x0 DUP1 PUSH1 0x80 DUP6 DUP8 SUB SLT ISZERO PUSH2 0xA04 JUMPI PUSH2 0xA03 PUSH2 0x6DC JUMP JUMPDEST JUMPDEST PUSH1 0x0 DUP6 ADD CALLDATALOAD PUSH8 0xFFFFFFFFFFFFFFFF DUP2 GT ISZERO PUSH2 0xA22 JUMPI PUSH2 0xA21 PUSH2 0x6E1 JUMP JUMPDEST JUMPDEST PUSH2 0xA2E DUP8 DUP3 DUP9 ADD PUSH2 0x7FE JUMP JUMPDEST SWAP5 POP POP PUSH1 0x20 DUP6 ADD CALLDATALOAD PUSH8 0xFFFFFFFFFFFFFFFF DUP2 GT ISZERO PUSH2 0xA4F JUMPI PUSH2 0xA4E PUSH2 0x6E1 JUMP JUMPDEST JUMPDEST PUSH2 0xA5B DUP8 DUP3 DUP9 ADD PUSH2 0x7FE JUMP JUMPDEST SWAP4 POP POP PUSH1 0x40 DUP6 ADD CALLDATALOAD PUSH8 0xFFFFFFFFFFFFFFFF DUP2 GT ISZERO PUSH2 0xA7C JUMPI PUSH2 0xA7B PUSH2 0x6E1 JUMP JUMPDEST JUMPDEST PUSH2 0xA88 DUP8 DUP3 DUP9 ADD PUSH2 0x7FE JUMP JUMPDEST SWAP3 POP POP PUSH1 0x60 DUP6 ADD CALLDATALOAD PUSH8 0xFFFFFFFFFFFFFFFF DUP2 GT ISZERO PUSH2 0xAA9 JUMPI PUSH2 0xAA8 PUSH2 0x6E1 JUMP JUMPDEST JUMPDEST PUSH2 0xAB5 DUP8 DUP3 DUP9 ADD PUSH2 0x7FE JUMP JUMPDEST SWAP2 POP POP SWAP3 SWAP6 SWAP2 SWAP5 POP SWAP3 POP JUMP JUMPDEST PUSH1 0x0 DUP2 SWAP1 POP SWAP3 SWAP2 POP POP JUMP JUMPDEST PUSH1 0x0 PUSH2 0xAD7 DUP3 PUSH2 0x875 JUMP JUMPDEST PUSH2 0xAE1 DUP2 DUP6 PUSH2 0xAC1 JUMP JUMPDEST SWAP4 POP PUSH2 0xAF1 DUP2 DUP6 PUSH1 0x20 DUP7 ADD PUSH2 0x891 JUMP JUMPDEST DUP1 DUP5 ADD SWAP2 POP POP SWAP3 SWAP2 POP POP JUMP JUMPDEST PUSH1 0x0 PUSH2 0xB09 DUP3 DUP5 PUSH2 0xACC JUMP JUMPDEST SWAP2 POP DUP2 SWAP1 POP SWAP3 SWAP2 POP POP JUMP JUMPDEST PUSH32 0x446F63756D656E746F206E6F6E2074726F7661746F0000000000000000000000 PUSH1 0x0 DUP3 ADD MSTORE POP JUMP JUMPDEST PUSH1 0x0 PUSH2 0xB4A PUSH1 0x15 DUP4 PUSH2 0x880 JUMP JUMPDEST SWAP2 POP PUSH2 0xB55 DUP3 PUSH2 0xB14 JUMP JUMPDEST PUSH1 0x20 DUP3 ADD SWAP1 POP SWAP2 SWAP1 POP JUMP JUMPDEST PUSH1 0x0 PUSH1 0x20 DUP3 ADD SWAP1 POP DUP2 DUP2 SUB PUSH1 0x0 DUP4 ADD MSTORE PUSH2 0xB79 DUP2 PUSH2 0xB3D JUMP JUMPDEST SWAP1 POP SWAP2 SWAP1 POP JUMP JUMPDEST PUSH32 0x4E487B7100000000000000000000000000000000000000000000000000000000 PUSH1 0x0 MSTORE PUSH1 0x22 PUSH1 0x4 MSTORE PUSH1 0x24 PUSH1 0x0 REVERT JUMPDEST PUSH1 0x0 PUSH1 0x2 DUP3 DIV SWAP1 POP PUSH1 0x1 DUP3 AND DUP1 PUSH2 0xBC7 JUMPI PUSH1 0x7F DUP3 AND SWAP2 POP JUMPDEST PUSH1 0x20 DUP3 LT DUP2 SUB PUSH2 0xBDA JUMPI PUSH2 0xBD9 PUSH2 0xB80 JUMP JUMPDEST JUMPDEST POP SWAP2 SWAP1 POP JUMP JUMPDEST PUSH32 0x446F63756D656E746F2067696127206573697374656E74650000000000000000 PUSH1 0x0 DUP3 ADD MSTORE POP JUMP JUMPDEST PUSH1 0x0 PUSH2 0xC16 PUSH1 0x18 DUP4 PUSH2 0x880 JUMP JUMPDEST SWAP2 POP PUSH2 0xC21 DUP3 PUSH2 0xBE0 JUMP JUMPDEST PUSH1 0x20 DUP3 ADD SWAP1 POP SWAP2 SWAP1 POP JUMP JUMPDEST PUSH1 0x0 PUSH1 0x20 DUP3 ADD SWAP1 POP DUP2 DUP2 SUB PUSH1 0x0 DUP4 ADD MSTORE PUSH2 0xC45 DUP2 PUSH2 0xC09 JUMP JUMPDEST SWAP1 POP SWAP2 SWAP1 POP JUMP JUMPDEST PUSH1 0x0 DUP2 SWAP1 POP DUP2 PUSH1 0x0 MSTORE PUSH1 0x20 PUSH1 0x0 KECCAK256 SWAP1 POP SWAP2 SWAP1 POP JUMP JUMPDEST PUSH1 0x0 PUSH1 0x20 PUSH1 0x1F DUP4 ADD DIV SWAP1 POP SWAP2 SWAP1 POP JUMP JUMPDEST PUSH1 0x0 DUP3 DUP3 SHL SWAP1 POP SWAP3 SWAP2 POP POP JUMP JUMPDEST PUSH1 0x0 PUSH1 0x8 DUP4 MUL PUSH2 0xCAE PUSH32 0xFFFFFFFFFFFFFFFFFFFFFFFFFFFFFFFFFFFFFFFFFFFFFFFFFFFFFFFFFFFFFFFF DUP3 PUSH2 0xC71 JUMP JUMPDEST PUSH2 0xCB8 DUP7 DUP4 PUSH2 0xC71 JUMP JUMPDEST SWAP6 POP DUP1 NOT DUP5 AND SWAP4 POP DUP1 DUP7 AND DUP5 OR SWAP3 POP POP POP SWAP4 SWAP3 POP POP POP JUMP JUMPDEST PUSH1 0x0 DUP2 SWAP1 POP SWAP2 SWAP1 POP JUMP JUMPDEST PUSH1 0x0 PUSH2 0xCF5 PUSH2 0xCF0 PUSH2 0xCEB DUP5 PUSH2 0x8F4 JUMP JUMPDEST PUSH2 0xCD0 JUMP JUMPDEST PUSH2 0x8F4 JUMP JUMPDEST SWAP1 POP SWAP2 SWAP1 POP JUMP JUMPDEST PUSH1 0x0 DUP2 SWAP1 POP SWAP2 SWAP1 POP JUMP JUMPDEST PUSH2 0xD0F DUP4 PUSH2 0xCDA JUMP JUMPDEST PUSH2 0xD23 PUSH2 0xD1B DUP3 PUSH2 0xCFC JUMP JUMPDEST DUP5 DUP5 SLOAD PUSH2 0xC7E JUMP JUMPDEST DUP3 SSTORE POP POP POP POP JUMP JUMPDEST PUSH1 0x0 SWAP1 JUMP JUMPDEST PUSH2 0xD38 PUSH2 0xD2B JUMP JUMPDEST PUSH2 0xD43 DUP2 DUP5 DUP5 PUSH2 0xD06 JUMP JUMPDEST POP POP POP JUMP JUMPDEST JUMPDEST DUP2 DUP2 LT ISZERO PUSH2 0xD67 JUMPI PUSH2 0xD5C PUSH1 0x0 DUP3 PUSH2 0xD30 JUMP JUMPDEST PUSH1 0x1 DUP2 ADD SWAP1 POP PUSH2 0xD49 JUMP JUMPDEST POP POP JUMP JUMPDEST PUSH1 0x1F DUP3 GT ISZERO PUSH2 0xDAC JUMPI PUSH2 0xD7D DUP2 PUSH2 0xC4C JUMP JUMPDEST PUSH2 0xD86 DUP5 PUSH2 0xC61 JUMP JUMPDEST DUP2 ADD PUSH1 0x20 DUP6 LT ISZERO PUSH2 0xD95 JUMPI DUP2 SWAP1 POP JUMPDEST PUSH2 0xDA9 PUSH2 0xDA1 DUP6 PUSH2 0xC61 JUMP JUMPDEST DUP4 ADD DUP3 PUSH2 0xD48 JUMP JUMPDEST POP POP JUMPDEST POP POP POP JUMP JUMPDEST PUSH1 0x0 DUP3 DUP3 SHR SWAP1 POP SWAP3 SWAP2 POP POP JUMP JUMPDEST PUSH1 0x0 PUSH2 0xDCF PUSH1 0x0 NOT DUP5 PUSH1 0x8 MUL PUSH2 0xDB1 JUMP JUMPDEST NOT DUP1 DUP4 AND SWAP2 POP POP SWAP3 SWAP2 POP POP JUMP JUMPDEST PUSH1 0x0 PUSH2 0xDE8 DUP4 DUP4 PUSH2 0xDBE JUMP JUMPDEST SWAP2 POP DUP3 PUSH1 0x2 MUL DUP3 OR SWAP1 POP SWAP3 SWAP2 POP POP JUMP JUMPDEST PUSH2 0xE01 DUP3 PUSH2 0x875 JUMP JUMPDEST PUSH8 0xFFFFFFFFFFFFFFFF DUP2 GT ISZERO PUSH2 0xE1A JUMPI PUSH2 0xE19 PUSH2 0x701 JUMP JUMPDEST JUMPDEST PUSH2 0xE24 DUP3 SLOAD PUSH2 0xBAF JUMP JUMPDEST PUSH2 0xE2F DUP3 DUP3 DUP6 PUSH2 0xD6B JUMP JUMPDEST PUSH1 0x0 PUSH1 0x20 SWAP1 POP PUSH1 0x1F DUP4 GT PUSH1 0x1 DUP2 EQ PUSH2 0xE62 JUMPI PUSH1 0x0 DUP5 ISZERO PUSH2 0xE50 JUMPI DUP3 DUP8 ADD MLOAD SWAP1 POP JUMPDEST PUSH2 0xE5A DUP6 DUP3 PUSH2 0xDDC JUMP JUMPDEST DUP7 SSTORE POP PUSH2 0xEC2 JUMP JUMPDEST PUSH1 0x1F NOT DUP5 AND PUSH2 0xE70 DUP7 PUSH2 0xC4C JUMP JUMPDEST PUSH1 0x0 JUMPDEST DUP3 DUP2 LT ISZERO PUSH2 0xE98 JUMPI DUP5 DUP10 ADD MLOAD DUP3 SSTORE PUSH1 0x1 DUP3 ADD SWAP2 POP PUSH1 0x20 DUP6 ADD SWAP5 POP PUSH1 0x20 DUP2 ADD SWAP1 POP PUSH2 0xE73 JUMP JUMPDEST DUP7 DUP4 LT ISZERO PUSH2 0xEB5 JUMPI DUP5 DUP10 ADD MLOAD PUSH2 0xEB1 PUSH1 0x1F DUP10 AND DUP3 PUSH2 0xDBE JUMP JUMPDEST DUP4 SSTORE POP JUMPDEST PUSH1 0x1 PUSH1 0x2 DUP9 MUL ADD DUP9 SSTORE POP POP POP JUMPDEST POP POP POP POP POP POP JUMP JUMPDEST PUSH1 0x0 PUSH1 0x20 DUP3 ADD SWAP1 POP DUP2 DUP2 SUB PUSH1 0x0 DUP4 ADD MSTORE PUSH2 0xEE4 DUP2 DUP5 PUSH2 0x8BB JUMP JUMPDEST SWAP1 POP SWAP3 SWAP2 POP POP JUMP INVALID LOG2 PUSH5 0x6970667358 0x22 SLT KECCAK256 SLT 0x24 CREATE 0xB7 0xC8 DUP12 0x29 SMOD 0x22 0xB6 DUP13 0xB9 PUSH0 0xE GT SAR DUP1 DUP5 EXTCODEHASH PUSH5 0x8D5FF3041A COINBASE SMOD 0xC6 PUSH29 0xB00D6E64736F6C63430008180033000000000000000000000000000000 "},"methodIdentifiers":{"documents(string)":"b3dd697b","getDocument(string)":"7ccb6a64","storeDocument(string,string,string,string)":"c7f75340"}}}}}