{
  "_format": "hh-sol-artifact-1",
  "contractName": "EntityStorage",
  "sourceName": "contracts/entityStorage.sol",
  "abi": [
    {
      "anonymous": false,
      "inputs": [
        {
          "indexed": true,
          "internalType": "string",
          "name": "txHash",
          "type": "string"
        },
        {
          "indexed": false,
          "internalType": "string",
          "name": "description",
          "type": "string"
        }
      ],
      "name": "DocumentStored",
      "type": "event"
    },
    {
      "inputs": [
        {
          "internalType": "string",
          "name": "",
          "type": "string"
        }
      ],
      "name": "documents",
      "outputs": [
        {
          "internalType": "string",
          "name": "ipfsHash",
          "type": "string"
        },
        {
          "internalType": "string",
          "name": "md5Hash",
          "type": "string"
        },
        {
          "internalType": "string",
          "name": "description",
          "type": "string"
        },
        {
          "internalType": "bool",
          "name": "exists",
          "type": "bool"
        },
        {
          "internalType": "uint256",
          "name": "timestamp",
          "type": "uint256"
        }
      ],
      "stateMutability": "view",
      "type": "function"
    },
    {
      "inputs": [
        {
          "internalType": "string",
          "name": "_txHash",
          "type": "string"
        }
      ],
      "name": "getDocument",
      "outputs": [
        {
          "internalType": "string",
          "name": "",
          "type": "string"
        },
        {
          "internalType": "string",
          "name": "",
          "type": "string"
        },
        {
          "internalType": "string",
          "name": "",
          "type": "string"
        },
        {
          "internalType": "uint256",
          "name": "",
          "type": "uint256"
        }
      ],
      "stateMutability": "view",
      "type": "function"
    },
    {
      "inputs": [
        {
          "internalType": "string",
          "name": "_txHash",
          "type": "string"
        },
        {
          "internalType": "string",
          "name": "_ipfsHash",
          "type": "string"
        },
        {
          "internalType": "string",
          "name": "_md5Hash",
          "type": "string"
        },
        {
          "internalType": "string",
          "name": "_description",
          "type": "string"
        }
      ],
      "name": "storeDocument",
      "outputs": [],
      "stateMutability": "nonpayable",
      "type": "function"
    }
  ],
  "bytecode": "0x608060405234801561001057600080fd5b50610f22806100206000396000f3fe608060405234801561001057600080fd5b50600436106100415760003560e01c80637ccb6a6414610046578063b3dd697b14610079578063c7f75340146100ad575b600080fd5b610060600480360381019061005b919061082c565b6100c9565b604051610070949392919061090d565b60405180910390f35b610093600480360381019061008e919061082c565b610368565b6040516100a4959493929190610982565b60405180910390f35b6100c760048036038101906100c291906109ea565b610559565b005b6060806060600080856040516100df9190610afd565b908152602001604051809103902060030160009054906101000a900460ff1661013d576040517f08c379a000000000000000000000000000000000000000000000000000000000815260040161013490610b60565b60405180910390fd5b6000808660405161014e9190610afd565b90815260200160405180910390206040518060a001604052908160008201805461017790610baf565b80601f01602080910402602001604051908101604052809291908181526020018280546101a390610baf565b80156101f05780601f106101c5576101008083540402835291602001916101f0565b820191906000526020600020905b8154815290600101906020018083116101d357829003601f168201915b5050505050815260200160018201805461020990610baf565b80601f016020809104026020016040519081016040528092919081815260200182805461023590610baf565b80156102825780601f1061025757610100808354040283529160200191610282565b820191906000526020600020905b81548152906001019060200180831161026557829003601f168201915b5050505050815260200160028201805461029b90610baf565b80601f01602080910402602001604051908101604052809291908181526020018280546102c790610baf565b80156103145780601f106102e957610100808354040283529160200191610314565b820191906000526020600020905b8154815290600101906020018083116102f757829003601f168201915b505050505081526020016003820160009054906101000a900460ff16151515158152602001600482015481525050905080600001518160200151826040015183608001519450945094509450509193509193565b6000818051602081018201805184825260208301602085012081835280955050505050506000915090508060000180546103a190610baf565b80601f01602080910402602001604051908101604052809291908181526020018280546103cd90610baf565b801561041a5780601f106103ef5761010080835404028352916020019161041a565b820191906000526020600020905b8154815290600101906020018083116103fd57829003601f168201915b50505050509080600101805461042f90610baf565b80601f016020809104026020016040519081016040528092919081815260200182805461045b90610baf565b80156104a85780601f1061047d576101008083540402835291602001916104a8565b820191906000526020600020905b81548152906001019060200180831161048b57829003601f168201915b5050505050908060020180546104bd90610baf565b80601f01602080910402602001604051908101604052809291908181526020018280546104e990610baf565b80156105365780601f1061050b57610100808354040283529160200191610536565b820191906000526020600020905b81548152906001019060200180831161051957829003601f168201915b5050505050908060030160009054906101000a900460ff16908060040154905085565b6000846040516105699190610afd565b908152602001604051809103902060030160009054906101000a900460ff16156105c8576040517f08c379a00000000000000000000000000000000000000000000000000000000081526004016105bf90610c2c565b60405180910390fd5b6040518060a00160405280848152602001838152602001828152602001600115158152602001428152506000856040516106029190610afd565b908152602001604051809103902060008201518160000190816106259190610df8565b50602082015181600101908161063b9190610df8565b5060408201518160020190816106519190610df8565b5060608201518160030160006101000a81548160ff021916908315150217905550608082015181600401559050508360405161068d9190610afd565b60405180910390207f4f63b101254c6d55638976c7c7b2e44ff57476ecf4c4c9cdc27cf3049e21c250826040516106c49190610eca565b60405180910390a250505050565b6000604051905090565b600080fd5b600080fd5b600080fd5b600080fd5b6000601f19601f8301169050919050565b7f4e487b7100000000000000000000000000000000000000000000000000000000600052604160045260246000fd5b610739826106f0565b810181811067ffffffffffffffff8211171561075857610757610701565b5b80604052505050565b600061076b6106d2565b90506107778282610730565b919050565b600067ffffffffffffffff82111561079757610796610701565b5b6107a0826106f0565b9050602081019050919050565b82818337600083830152505050565b60006107cf6107ca8461077c565b610761565b9050828152602081018484840111156107eb576107ea6106eb565b5b6107f68482856107ad565b509392505050565b600082601f830112610813576108126106e6565b5b81356108238482602086016107bc565b91505092915050565b600060208284031215610842576108416106dc565b5b600082013567ffffffffffffffff8111156108605761085f6106e1565b5b61086c848285016107fe565b91505092915050565b600081519050919050565b600082825260208201905092915050565b60005b838110156108af578082015181840152602081019050610894565b60008484015250505050565b60006108c682610875565b6108d08185610880565b93506108e0818560208601610891565b6108e9816106f0565b840191505092915050565b6000819050919050565b610907816108f4565b82525050565b6000608082019050818103600083015261092781876108bb565b9050818103602083015261093b81866108bb565b9050818103604083015261094f81856108bb565b905061095e60608301846108fe565b95945050505050565b60008115159050919050565b61097c81610967565b82525050565b600060a082019050818103600083015261099c81886108bb565b905081810360208301526109b081876108bb565b905081810360408301526109c481866108bb565b90506109d36060830185610973565b6109e060808301846108fe565b9695505050505050565b60008060008060808587031215610a0457610a036106dc565b5b600085013567ffffffffffffffff811115610a2257610a216106e1565b5b610a2e878288016107fe565b945050602085013567ffffffffffffffff811115610a4f57610a4e6106e1565b5b610a5b878288016107fe565b935050604085013567ffffffffffffffff811115610a7c57610a7b6106e1565b5b610a88878288016107fe565b925050606085013567ffffffffffffffff811115610aa957610aa86106e1565b5b610ab5878288016107fe565b91505092959194509250565b600081905092915050565b6000610ad782610875565b610ae18185610ac1565b9350610af1818560208601610891565b80840191505092915050565b6000610b098284610acc565b915081905092915050565b7f446f63756d656e746f206e6f6e2074726f7661746f0000000000000000000000600082015250565b6000610b4a601583610880565b9150610b5582610b14565b602082019050919050565b60006020820190508181036000830152610b7981610b3d565b9050919050565b7f4e487b7100000000000000000000000000000000000000000000000000000000600052602260045260246000fd5b60006002820490506001821680610bc757607f821691505b602082108103610bda57610bd9610b80565b5b50919050565b7f446f63756d656e746f2067696127206573697374656e74650000000000000000600082015250565b6000610c16601883610880565b9150610c2182610be0565b602082019050919050565b60006020820190508181036000830152610c4581610c09565b9050919050565b60008190508160005260206000209050919050565b60006020601f8301049050919050565b600082821b905092915050565b600060088302610cae7fffffffffffffffffffffffffffffffffffffffffffffffffffffffffffffffff82610c71565b610cb88683610c71565b95508019841693508086168417925050509392505050565b6000819050919050565b6000610cf5610cf0610ceb846108f4565b610cd0565b6108f4565b9050919050565b6000819050919050565b610d0f83610cda565b610d23610d1b82610cfc565b848454610c7e565b825550505050565b600090565b610d38610d2b565b610d43818484610d06565b505050565b5b81811015610d6757610d5c600082610d30565b600181019050610d49565b5050565b601f821115610dac57610d7d81610c4c565b610d8684610c61565b81016020851015610d95578190505b610da9610da185610c61565b830182610d48565b50505b505050565b600082821c905092915050565b6000610dcf60001984600802610db1565b1980831691505092915050565b6000610de88383610dbe565b9150826002028217905092915050565b610e0182610875565b67ffffffffffffffff811115610e1a57610e19610701565b5b610e248254610baf565b610e2f828285610d6b565b600060209050601f831160018114610e625760008415610e50578287015190505b610e5a8582610ddc565b865550610ec2565b601f198416610e7086610c4c565b60005b82811015610e9857848901518255600182019150602085019450602081019050610e73565b86831015610eb55784890151610eb1601f891682610dbe565b8355505b6001600288020188555050505b505050505050565b60006020820190508181036000830152610ee481846108bb565b90509291505056fea26469706673582212201224f0b7c88b290722b68cb95f0e111d80843f648d5ff3041a4107c67cb00d6e64736f6c63430008180033",
  "linkReferences": {},
  "deployedLinkReferences": {}
}