{
  "_format": "hh-sol-artifact-1",
  "contractName": "DelegationHub",
  "sourceName": "contracts/delegationHub.sol",
  "abi": [
    {
      "anonymous": false,
      "inputs": [
        {
          "indexed": false,
          "internalType": "string",
          "name": "txHash",
          "type": "string"
        },
        {
          "indexed": true,
          "internalType": "address",
          "name": "requestor",
          "type": "address"
        },
        {
          "indexed": false,
          "internalType": "bool",
          "name": "allowed",
          "type": "bool"
        }
      ],
      "name": "AccessCheckResult",
      "type": "event"
    },
    {
      "anonymous": false,
      "inputs": [
        {
          "indexed": true,
          "internalType": "string",
          "name": "txHash",
          "type": "string"
        },
        {
          "indexed": true,
          "internalType": "address",
          "name": "user",
          "type": "address"
        },
        {
          "indexed": false,
          "internalType": "uint8",
          "name": "level",
          "type": "uint8"
        }
      ],
      "name": "AccessGranted",
      "type": "event"
    },
    {
      "inputs": [
        {
          "internalType": "string",
          "name": "",
          "type": "string"
        },
        {
          "internalType": "address",
          "name": "",
          "type": "address"
        }
      ],
      "name": "documentPermissions",
      "outputs": [
        {
          "internalType": "bool",
          "name": "isValid",
          "type": "bool"
        },
        {
          "internalType": "uint256",
          "name": "expiryTime",
          "type": "uint256"
        },
        {
          "internalType": "uint8",
          "name": "delegationDepth",
          "type": "uint8"
        }
      ],
      "stateMutability": "view",
      "type": "function"
    },
    {
      "inputs": [
        {
          "internalType": "string",
          "name": "_txHash",
          "type": "string"
        },
        {
          "internalType": "address",
          "name": "_delegate",
          "type": "address"
        },
        {
          "internalType": "uint256",
          "name": "_secondsDuration",
          "type": "uint256"
        },
        {
          "internalType": "uint8",
          "name": "_depth",
          "type": "uint8"
        }
      ],
      "name": "grantAccess",
      "outputs": [],
      "stateMutability": "nonpayable",
      "type": "function"
    },
    {
      "inputs": [
        {
          "internalType": "string",
          "name": "_txHash",
          "type": "string"
        }
      ],
      "name": "verifyDocumentAccess",
      "outputs": [],
      "stateMutability": "nonpayable",
      "type": "function"
    }
  ],
  "bytecode": "0x608060405234801561001057600080fd5b506108f2806100206000396000f3fe608060405234801561001057600080fd5b50600436106100415760003560e01c80632d7107f81461004657806384c3071614610062578063d531f38314610094575b600080fd5b610060600480360381019061005b91906104d7565b6100b0565b005b61007c6004803603810190610077919061057e565b6101d1565b60405161008b9392919061062a565b60405180910390f35b6100ae60048036038101906100a991906106b9565b610238565b005b600080826040516100c191906107ad565b908152602001604051809103902060003373ffffffffffffffffffffffffffffffffffffffff1673ffffffffffffffffffffffffffffffffffffffff1681526020019081526020016000206040518060600160405290816000820160009054906101000a900460ff16151515158152602001600182015481526020016002820160009054906101000a900460ff1660ff1660ff16815250509050600081600001518015610172575081602001514211155b1561017c57600190505b3373ffffffffffffffffffffffffffffffffffffffff167f9614d34f8db3d9931f2c0351c5d125d53573a18874766926a6b1d93cfba4ce0784836040516101c492919061080e565b60405180910390a2505050565b600082805160208101820180518482526020830160208501208183528095505050505050602052806000526040600020600091509150508060000160009054906101000a900460ff16908060010154908060020160009054906101000a900460ff16905083565b60008242610246919061086d565b905060405180606001604052806001151581526020018281526020018360ff1681525060008660405161027991906107ad565b908152602001604051809103902060008673ffffffffffffffffffffffffffffffffffffffff1673ffffffffffffffffffffffffffffffffffffffff16815260200190815260200160002060008201518160000160006101000a81548160ff0219169083151502179055506020820151816001015560408201518160020160006101000a81548160ff021916908360ff1602179055509050508373ffffffffffffffffffffffffffffffffffffffff168560405161033791906107ad565b60405180910390207f115f6ef52391618892f3a77f23446f2b996b12f28b601e7d85f2b8d372436c718460405161036e91906108a1565b60405180910390a35050505050565b6000604051905090565b600080fd5b600080fd5b600080fd5b600080fd5b6000601f19601f8301169050919050565b7f4e487b7100000000000000000000000000000000000000000000000000000000600052604160045260246000fd5b6103e48261039b565b810181811067ffffffffffffffff82111715610403576104026103ac565b5b80604052505050565b600061041661037d565b905061042282826103db565b919050565b600067ffffffffffffffff821115610442576104416103ac565b5b61044b8261039b565b9050602081019050919050565b82818337600083830152505050565b600061047a61047584610427565b61040c565b90508281526020810184848401111561049657610495610396565b5b6104a1848285610458565b509392505050565b600082601f8301126104be576104bd610391565b5b81356104ce848260208601610467565b91505092915050565b6000602082840312156104ed576104ec610387565b5b600082013567ffffffffffffffff81111561050b5761050a61038c565b5b610517848285016104a9565b91505092915050565b600073ffffffffffffffffffffffffffffffffffffffff82169050919050565b600061054b82610520565b9050919050565b61055b81610540565b811461056657600080fd5b50565b60008135905061057881610552565b92915050565b6000806040838503121561059557610594610387565b5b600083013567ffffffffffffffff8111156105b3576105b261038c565b5b6105bf858286016104a9565b92505060206105d085828601610569565b9150509250929050565b60008115159050919050565b6105ef816105da565b82525050565b6000819050919050565b610608816105f5565b82525050565b600060ff82169050919050565b6106248161060e565b82525050565b600060608201905061063f60008301866105e6565b61064c60208301856105ff565b610659604083018461061b565b949350505050565b61066a816105f5565b811461067557600080fd5b50565b60008135905061068781610661565b92915050565b6106968161060e565b81146106a157600080fd5b50565b6000813590506106b38161068d565b92915050565b600080600080608085870312156106d3576106d2610387565b5b600085013567ffffffffffffffff8111156106f1576106f061038c565b5b6106fd878288016104a9565b945050602061070e87828801610569565b935050604061071f87828801610678565b9250506060610730878288016106a4565b91505092959194509250565b600081519050919050565b600081905092915050565b60005b83811015610770578082015181840152602081019050610755565b60008484015250505050565b60006107878261073c565b6107918185610747565b93506107a1818560208601610752565b80840191505092915050565b60006107b9828461077c565b915081905092915050565b600082825260208201905092915050565b60006107e08261073c565b6107ea81856107c4565b93506107fa818560208601610752565b6108038161039b565b840191505092915050565b6000604082019050818103600083015261082881856107d5565b905061083760208301846105e6565b9392505050565b7f4e487b7100000000000000000000000000000000000000000000000000000000600052601160045260246000fd5b6000610878826105f5565b9150610883836105f5565b925082820190508082111561089b5761089a61083e565b5b92915050565b60006020820190506108b6600083018461061b565b9291505056fea2646970667358221220587908b8b01c2984b7c7659b944916fcce592c80712695009d0cb86aae3b99bb64736f6c63430008180033",
  "linkReferences": {},
  "deployedLinkReferences": {}
}