{
  "_format": "hh-sol-artifact-1",
  "contractName": "EntityStorage",
  "sourceName": "contracts/entityStorage.sol",
  "abi": [
    {
      "anonymous": false,
      "inputs": [
        {
          "indexed": true,
          "internalType": "string",
          "name": "txHash",
          "type": "string"
        },
        {
          "indexed": false,
          "internalType": "string",
          "name": "description",
          "type": "string"
        }
      ],
      "name": "DocumentStored",
      "type": "event"
    },
    {
      "inputs": [
        {
          "internalType": "string",
          "name": "",
          "type": "string"
        }
      ],
      "name": "documents",
      "outputs": [
        {
          "internalType": "string",
          "name": "ipfsHash",
          "type": "string"
        },
        {
          "internalType": "string",
          "name": "description",
          "type": "string"
        },
        {
          "internalType": "bool",
          "name": "exists",
          "type": "bool"
        },
        {
          "internalType": "uint256",
          "name": "timestamp",
          "type": "uint256"
        }
      ],
      "stateMutability": "view",
      "type": "function"
    },
    {
      "inputs": [
        {
          "internalType": "string",
          "name": "_txHash",
          "type": "string"
        }
      ],
      "name": "getDocument",
      "outputs": [
        {
          "internalType": "string",
          "name": "",
          "type": "string"
        },
        {
          "internalType": "string",
          "name": "",
          "type": "string"
        },
        {
          "internalType": "uint256",
          "name": "",
          "type": "uint256"
        }
      ],
      "stateMutability": "view",
      "type": "function"
    },
    {
      "inputs": [
        {
          "internalType": "string",
          "name": "_txHash",
          "type": "string"
        },
        {
          "internalType": "string",
          "name": "_ipfsHash",
          "type": "string"
        },
        {
          "internalType": "string",
          "name": "_description",
          "type": "string"
        }
      ],
      "name": "storeDocument",
      "outputs": [],
      "stateMutability": "nonpayable",
      "type": "function"
    }
  ],
  "bytecode": "0x608060405234801561001057600080fd5b50610d80806100206000396000f3fe608060405234801561001057600080fd5b50600436106100415760003560e01c80637ccb6a6414610046578063b3dd697b14610078578063f2d893e4146100ab575b600080fd5b610060600480360381019061005b91906106e4565b6100c7565b60405161006f939291906107c5565b60405180910390f35b610092600480360381019061008d91906106e4565b6102cb565b6040516100a29493929190610825565b60405180910390f35b6100c560048036038101906100c09190610878565b61042e565b005b606080600080846040516100db919061095b565b908152602001604051809103902060020160009054906101000a900460ff16610139576040517f08c379a0000000000000000000000000000000000000000000000000000000008152600401610130906109be565b60405180910390fd5b6000808560405161014a919061095b565b908152602001604051809103902060405180608001604052908160008201805461017390610a0d565b80601f016020809104026020016040519081016040528092919081815260200182805461019f90610a0d565b80156101ec5780601f106101c1576101008083540402835291602001916101ec565b820191906000526020600020905b8154815290600101906020018083116101cf57829003601f168201915b5050505050815260200160018201805461020590610a0d565b80601f016020809104026020016040519081016040528092919081815260200182805461023190610a0d565b801561027e5780601f106102535761010080835404028352916020019161027e565b820191906000526020600020905b81548152906001019060200180831161026157829003601f168201915b505050505081526020016002820160009054906101000a900460ff161515151581526020016003820154815250509050806000015181602001518260600151935093509350509193909250565b60008180516020810182018051848252602083016020850120818352809550505050505060009150905080600001805461030490610a0d565b80601f016020809104026020016040519081016040528092919081815260200182805461033090610a0d565b801561037d5780601f106103525761010080835404028352916020019161037d565b820191906000526020600020905b81548152906001019060200180831161036057829003601f168201915b50505050509080600101805461039290610a0d565b80601f01602080910402602001604051908101604052809291908181526020018280546103be90610a0d565b801561040b5780601f106103e05761010080835404028352916020019161040b565b820191906000526020600020905b8154815290600101906020018083116103ee57829003601f168201915b5050505050908060020160009054906101000a900460ff16908060030154905084565b60008360405161043e919061095b565b908152602001604051809103902060020160009054906101000a900460ff161561049d576040517f08c379a000000000000000000000000000000000000000000000000000000000815260040161049490610a8a565b60405180910390fd5b6040518060800160405280838152602001828152602001600115158152602001428152506000846040516104d1919061095b565b908152602001604051809103902060008201518160000190816104f49190610c56565b50602082015181600101908161050a9190610c56565b5060408201518160020160006101000a81548160ff0219169083151502179055506060820151816003015590505082604051610546919061095b565b60405180910390207f4f63b101254c6d55638976c7c7b2e44ff57476ecf4c4c9cdc27cf3049e21c2508260405161057d9190610d28565b60405180910390a2505050565b6000604051905090565b600080fd5b600080fd5b600080fd5b600080fd5b6000601f19601f8301169050919050565b7f4e487b7100000000000000000000000000000000000000000000000000000000600052604160045260246000fd5b6105f1826105a8565b810181811067ffffffffffffffff821117156106105761060f6105b9565b5b80604052505050565b600061062361058a565b905061062f82826105e8565b919050565b600067ffffffffffffffff82111561064f5761064e6105b9565b5b610658826105a8565b9050602081019050919050565b82818337600083830152505050565b600061068761068284610634565b610619565b9050828152602081018484840111156106a3576106a26105a3565b5b6106ae848285610665565b509392505050565b600082601f8301126106cb576106ca61059e565b5b81356106db848260208601610674565b91505092915050565b6000602082840312156106fa576106f9610594565b5b600082013567ffffffffffffffff81111561071857610717610599565b5b610724848285016106b6565b91505092915050565b600081519050919050565b600082825260208201905092915050565b60005b8381101561076757808201518184015260208101905061074c565b60008484015250505050565b600061077e8261072d565b6107888185610738565b9350610798818560208601610749565b6107a1816105a8565b840191505092915050565b6000819050919050565b6107bf816107ac565b82525050565b600060608201905081810360008301526107df8186610773565b905081810360208301526107f38185610773565b905061080260408301846107b6565b949350505050565b60008115159050919050565b61081f8161080a565b82525050565b6000608082019050818103600083015261083f8187610773565b905081810360208301526108538186610773565b90506108626040830185610816565b61086f60608301846107b6565b95945050505050565b60008060006060848603121561089157610890610594565b5b600084013567ffffffffffffffff8111156108af576108ae610599565b5b6108bb868287016106b6565b935050602084013567ffffffffffffffff8111156108dc576108db610599565b5b6108e8868287016106b6565b925050604084013567ffffffffffffffff81111561090957610908610599565b5b610915868287016106b6565b9150509250925092565b600081905092915050565b60006109358261072d565b61093f818561091f565b935061094f818560208601610749565b80840191505092915050565b6000610967828461092a565b915081905092915050565b7f446f63756d656e746f206e6f6e2074726f7661746f0000000000000000000000600082015250565b60006109a8601583610738565b91506109b382610972565b602082019050919050565b600060208201905081810360008301526109d78161099b565b9050919050565b7f4e487b7100000000000000000000000000000000000000000000000000000000600052602260045260246000fd5b60006002820490506001821680610a2557607f821691505b602082108103610a3857610a376109de565b5b50919050565b7f446f63756d656e746f2067696127206573697374656e74650000000000000000600082015250565b6000610a74601883610738565b9150610a7f82610a3e565b602082019050919050565b60006020820190508181036000830152610aa381610a67565b9050919050565b60008190508160005260206000209050919050565b60006020601f8301049050919050565b600082821b905092915050565b600060088302610b0c7fffffffffffffffffffffffffffffffffffffffffffffffffffffffffffffffff82610acf565b610b168683610acf565b95508019841693508086168417925050509392505050565b6000819050919050565b6000610b53610b4e610b49846107ac565b610b2e565b6107ac565b9050919050565b6000819050919050565b610b6d83610b38565b610b81610b7982610b5a565b848454610adc565b825550505050565b600090565b610b96610b89565b610ba1818484610b64565b505050565b5b81811015610bc557610bba600082610b8e565b600181019050610ba7565b5050565b601f821115610c0a57610bdb81610aaa565b610be484610abf565b81016020851015610bf3578190505b610c07610bff85610abf565b830182610ba6565b50505b505050565b600082821c905092915050565b6000610c2d60001984600802610c0f565b1980831691505092915050565b6000610c468383610c1c565b9150826002028217905092915050565b610c5f8261072d565b67ffffffffffffffff811115610c7857610c776105b9565b5b610c828254610a0d565b610c8d828285610bc9565b600060209050601f831160018114610cc05760008415610cae578287015190505b610cb88582610c3a565b865550610d20565b601f198416610cce86610aaa565b60005b82811015610cf657848901518255600182019150602085019450602081019050610cd1565b86831015610d135784890151610d0f601f891682610c1c565b8355505b6001600288020188555050505b505050505050565b60006020820190508181036000830152610d428184610773565b90509291505056fea2646970667358221220c91f33e42a319598d5cb1f940f1b807528c6223f7412d766248cac04163ffad064736f6c63430008180033",
  "linkReferences": {},
  "deployedLinkReferences": {}
}