{"contracts/entityStorage.sol":{"EntityStorage":{"abi":[{"anonymous":false,"inputs":[{"indexed":true,"internalType":"string","name":"txHash","type":"string"},{"indexed":false,"internalType":"string","name":"description","type":"string"}],"name":"DocumentStored","type":"event"},{"inputs":[{"internalType":"string","name":"","type":"string"}],"name":"documents","outputs":[{"internalType":"string","name":"ipfsHash","type":"string"},{"internalType":"string","name":"description","type":"string"},{"internalType":"bool","name":"exists","type":"bool"},{"internalType":"uint256","name":"timestamp","type":"uint256"}],"stateMutability":"view","type":"function"},{"inputs":[{"internalType":"string","name":"_txHash","type":"string"}],"name":"getDocument","outputs":[{"internalType":"string","name":"","type":"string"},{"internalType":"string","name":"","type":"string"},{"internalType":"uint256","name":"","type":"uint256"}],"stateMutability":"view","type":"function"},{"inputs":[{"internalType":"string","name":"_txHash","type":"string"},{"internalType":"string","name":"_ipfsHash","type":"string"},{"internalType":"string","name":"_description","type":"string"}],"name":"storeDocument","outputs":[],"stateMutability":"nonpayable","type":"function"}],"evm":{"bytecode":{"linkReferences":{},"object":"608060405234801561001057600080fd5b50610d80806100206000396000f3fe608060405234801561001057600080fd5b50600436106100415760003560e01c80637ccb6a6414610046578063b3dd697b14610078578063f2d893e4146100ab575b600080fd5b610060600480360381019061005b91906106e4565b6100c7565b60405161006f939291906107c5565b60405180910390f35b610092600480360381019061008d91906106e4565b6102cb565b6040516100a29493929190610825565b60405180910390f35b6100c560048036038101906100c09190610878565b61042e565b005b606080600080846040516100db919061095b565b908152602001604051809103902060020160009054906101000a900460ff16610139576040517f08c379a0000000000000000000000000000000000000000000000000000000008152600401610130906109be565b60405180910390fd5b6000808560405161014a919061095b565b908152602001604051809103902060405180608001604052908160008201805461017390610a0d565b80601f016020809104026020016040519081016040528092919081815260200182805461019f90610a0d565b80156101ec5780601f106101c1576101008083540402835291602001916101ec565b820191906000526020600020905b8154815290600101906020018083116101cf57829003601f168201915b5050505050815260200160018201805461020590610a0d565b80601f016020809104026020016040519081016040528092919081815260200182805461023190610a0d565b801561027e5780601f106102535761010080835404028352916020019161027e565b820191906000526020600020905b81548152906001019060200180831161026157829003601f168201915b505050505081526020016002820160009054906101000a900460ff161515151581526020016003820154815250509050806000015181602001518260600151935093509350509193909250565b60008180516020810182018051848252602083016020850120818352809550505050505060009150905080600001805461030490610a0d565b80601f016020809104026020016040519081016040528092919081815260200182805461033090610a0d565b801561037d5780601f106103525761010080835404028352916020019161037d565b820191906000526020600020905b81548152906001019060200180831161036057829003601f168201915b50505050509080600101805461039290610a0d565b80601f01602080910402602001604051908101604052809291908181526020018280546103be90610a0d565b801561040b5780601f106103e05761010080835404028352916020019161040b565b820191906000526020600020905b8154815290600101906020018083116103ee57829003601f168201915b5050505050908060020160009054906101000a900460ff16908060030154905084565b60008360405161043e919061095b565b908152602001604051809103902060020160009054906101000a900460ff161561049d576040517f08c379a000000000000000000000000000000000000000000000000000000000815260040161049490610a8a565b60405180910390fd5b6040518060800160405280838152602001828152602001600115158152602001428152506000846040516104d1919061095b565b908152602001604051809103902060008201518160000190816104f49190610c56565b50602082015181600101908161050a9190610c56565b5060408201518160020160006101000a81548160ff0219169083151502179055506060820151816003015590505082604051610546919061095b565b60405180910390207f4f63b101254c6d55638976c7c7b2e44ff57476ecf4c4c9cdc27cf3049e21c2508260405161057d9190610d28565b60405180910390a2505050565b6000604051905090565b600080fd5b600080fd5b600080fd5b600080fd5b6000601f19601f8301169050919050565b7f4e487b7100000000000000000000000000000000000000000000000000000000600052604160045260246000fd5b6105f1826105a8565b810181811067ffffffffffffffff821117156106105761060f6105b9565b5b80604052505050565b600061062361058a565b905061062f82826105e8565b919050565b600067ffffffffffffffff82111561064f5761064e6105b9565b5b610658826105a8565b9050602081019050919050565b82818337600083830152505050565b600061068761068284610634565b610619565b9050828152602081018484840111156106a3576106a26105a3565b5b6106ae848285610665565b509392505050565b600082601f8301126106cb576106ca61059e565b5b81356106db848260208601610674565b91505092915050565b6000602082840312156106fa576106f9610594565b5b600082013567ffffffffffffffff81111561071857610717610599565b5b610724848285016106b6565b91505092915050565b600081519050919050565b600082825260208201905092915050565b60005b8381101561076757808201518184015260208101905061074c565b60008484015250505050565b600061077e8261072d565b6107888185610738565b9350610798818560208601610749565b6107a1816105a8565b840191505092915050565b6000819050919050565b6107bf816107ac565b82525050565b600060608201905081810360008301526107df8186610773565b905081810360208301526107f38185610773565b905061080260408301846107b6565b949350505050565b60008115159050919050565b61081f8161080a565b82525050565b6000608082019050818103600083015261083f8187610773565b905081810360208301526108538186610773565b90506108626040830185610816565b61086f60608301846107b6565b95945050505050565b60008060006060848603121561089157610890610594565b5b600084013567ffffffffffffffff8111156108af576108ae610599565b5b6108bb868287016106b6565b935050602084013567ffffffffffffffff8111156108dc576108db610599565b5b6108e8868287016106b6565b925050604084013567ffffffffffffffff81111561090957610908610599565b5b610915868287016106b6565b9150509250925092565b600081905092915050565b60006109358261072d565b61093f818561091f565b935061094f818560208601610749565b80840191505092915050565b6000610967828461092a565b915081905092915050565b7f446f63756d656e746f206e6f6e2074726f7661746f0000000000000000000000600082015250565b60006109a8601583610738565b91506109b382610972565b602082019050919050565b600060208201905081810360008301526109d78161099b565b9050919050565b7f4e487b7100000000000000000000000000000000000000000000000000000000600052602260045260246000fd5b60006002820490506001821680610a2557607f821691505b602082108103610a3857610a376109de565b5b50919050565b7f446f63756d656e746f2067696127206573697374656e74650000000000000000600082015250565b6000610a74601883610738565b9150610a7f82610a3e565b602082019050919050565b60006020820190508181036000830152610aa381610a67565b9050919050565b60008190508160005260206000209050919050565b60006020601f8301049050919050565b600082821b905092915050565b600060088302610b0c7fffffffffffffffffffffffffffffffffffffffffffffffffffffffffffffffff82610acf565b610b168683610acf565b95508019841693508086168417925050509392505050565b6000819050919050565b6000610b53610b4e610b49846107ac565b610b2e565b6107ac565b9050919050565b6000819050919050565b610b6d83610b38565b610b81610b7982610b5a565b848454610adc565b825550505050565b600090565b610b96610b89565b610ba1818484610b64565b505050565b5b81811015610bc557610bba600082610b8e565b600181019050610ba7565b5050565b601f821115610c0a57610bdb81610aaa565b610be484610abf565b81016020851015610bf3578190505b610c07610bff85610abf565b830182610ba6565b50505b505050565b600082821c905092915050565b6000610c2d60001984600802610c0f565b1980831691505092915050565b6000610c468383610c1c565b9150826002028217905092915050565b610c5f8261072d565b67ffffffffffffffff811115610c7857610c776105b9565b5b610c828254610a0d565b610c8d828285610bc9565b600060209050601f831160018114610cc05760008415610cae578287015190505b610cb88582610c3a565b865550610d20565b601f198416610cce86610aaa565b60005b82811015610cf657848901518255600182019150602085019450602081019050610cd1565b86831015610d135784890151610d0f601f891682610c1c565b8355505b6001600288020188555050505b505050505050565b60006020820190508181036000830152610d428184610773565b90509291505056fea2646970667358221220c91f33e42a319598d5cb1f940f1b807528c6223f7412d766248cac04163ffad064736f6c63430008180033","opcodes":"PUSH1 0x80 PUSH1 0x40 MSTORE CALLVALUE DUP1 ISZERO PUSH2 0x10 JUMPI PUSH1 0x0 DUP1 REVERT JUMPDEST POP PUSH2 0xD80 DUP1 PUSH2 0x20 PUSH1 0x0 CODECOPY PUSH1 0x0 RETURN INVALID PUSH1 0x80 PUSH1 0x40 MSTORE CALLVALUE DUP1 ISZERO PUSH2 0x10 JUMPI PUSH1 0x0 DUP1 REVERT JUMPDEST POP PUSH1 0x4 CALLDATASIZE LT PUSH2 0x41 JUMPI PUSH1 0x0 CALLDATALOAD PUSH1 0xE0 SHR DUP1 PUSH4 0x7CCB6A64 EQ PUSH2 0x46 JUMPI DUP1 PUSH4 0xB3DD697B EQ PUSH2 0x78 JUMPI DUP1 PUSH4 0xF2D893E4 EQ PUSH2 0xAB JUMPI JUMPDEST PUSH1 0x0 DUP1 REVERT JUMPDEST PUSH2 0x60 PUSH1 0x4 DUP1 CALLDATASIZE SUB DUP2 ADD SWAP1 PUSH2 0x5B SWAP2 SWAP1 PUSH2 0x6E4 JUMP JUMPDEST PUSH2 0xC7 JUMP JUMPDEST PUSH1 0x40 MLOAD PUSH2 0x6F SWAP4 SWAP3 SWAP2 SWAP1 PUSH2 0x7C5 JUMP JUMPDEST PUSH1 0x40 MLOAD DUP1 SWAP2 SUB SWAP1 RETURN JUMPDEST PUSH2 0x92 PUSH1 0x4 DUP1 CALLDATASIZE SUB DUP2 ADD SWAP1 PUSH2 0x8D SWAP2 SWAP1 PUSH2 0x6E4 JUMP JUMPDEST PUSH2 0x2CB JUMP JUMPDEST PUSH1 0x40 MLOAD PUSH2 0xA2 SWAP5 SWAP4 SWAP3 SWAP2 SWAP1 PUSH2 0x825 JUMP JUMPDEST PUSH1 0x40 MLOAD DUP1 SWAP2 SUB SWAP1 RETURN JUMPDEST PUSH2 0xC5 PUSH1 0x4 DUP1 CALLDATASIZE SUB DUP2 ADD SWAP1 PUSH2 0xC0 SWAP2 SWAP1 PUSH2 0x878 JUMP JUMPDEST PUSH2 0x42E JUMP JUMPDEST STOP JUMPDEST PUSH1 0x60 DUP1 PUSH1 0x0 DUP1 DUP5 PUSH1 0x40 MLOAD PUSH2 0xDB SWAP2 SWAP1 PUSH2 0x95B JUMP JUMPDEST SWAP1 DUP2 MSTORE PUSH1 0x20 ADD PUSH1 0x40 MLOAD DUP1 SWAP2 SUB SWAP1 KECCAK256 PUSH1 0x2 ADD PUSH1 0x0 SWAP1 SLOAD SWAP1 PUSH2 0x100 EXP SWAP1 DIV PUSH1 0xFF AND PUSH2 0x139 JUMPI PUSH1 0x40 MLOAD PUSH32 0x8C379A000000000000000000000000000000000000000000000000000000000 DUP2 MSTORE PUSH1 0x4 ADD PUSH2 0x130 SWAP1 PUSH2 0x9BE JUMP JUMPDEST PUSH1 0x40 MLOAD DUP1 SWAP2 SUB SWAP1 REVERT JUMPDEST PUSH1 0x0 DUP1 DUP6 PUSH1 0x40 MLOAD PUSH2 0x14A SWAP2 SWAP1 PUSH2 0x95B JUMP JUMPDEST SWAP1 DUP2 MSTORE PUSH1 0x20 ADD PUSH1 0x40 MLOAD DUP1 SWAP2 SUB SWAP1 KECCAK256 PUSH1 0x40 MLOAD DUP1 PUSH1 0x80 ADD PUSH1 0x40 MSTORE SWAP1 DUP2 PUSH1 0x0 DUP3 ADD DUP1 SLOAD PUSH2 0x173 SWAP1 PUSH2 0xA0D JUMP JUMPDEST DUP1 PUSH1 0x1F ADD PUSH1 0x20 DUP1 SWAP2 DIV MUL PUSH1 0x20 ADD PUSH1 0x40 MLOAD SWAP1 DUP2 ADD PUSH1 0x40 MSTORE DUP1 SWAP3 SWAP2 SWAP1 DUP2 DUP2 MSTORE PUSH1 0x20 ADD DUP3 DUP1 SLOAD PUSH2 0x19F SWAP1 PUSH2 0xA0D JUMP JUMPDEST DUP1 ISZERO PUSH2 0x1EC JUMPI DUP1 PUSH1 0x1F LT PUSH2 0x1C1 JUMPI PUSH2 0x100 DUP1 DUP4 SLOAD DIV MUL DUP4 MSTORE SWAP2 PUSH1 0x20 ADD SWAP2 PUSH2 0x1EC JUMP JUMPDEST DUP3 ADD SWAP2 SWAP1 PUSH1 0x0 MSTORE PUSH1 0x20 PUSH1 0x0 KECCAK256 SWAP1 JUMPDEST DUP2 SLOAD DUP2 MSTORE SWAP1 PUSH1 0x1 ADD SWAP1 PUSH1 0x20 ADD DUP1 DUP4 GT PUSH2 0x1CF JUMPI DUP3 SWAP1 SUB PUSH1 0x1F AND DUP3 ADD SWAP2 JUMPDEST POP POP POP POP POP DUP2 MSTORE PUSH1 0x20 ADD PUSH1 0x1 DUP3 ADD DUP1 SLOAD PUSH2 0x205 SWAP1 PUSH2 0xA0D JUMP JUMPDEST DUP1 PUSH1 0x1F ADD PUSH1 0x20 DUP1 SWAP2 DIV MUL PUSH1 0x20 ADD PUSH1 0x40 MLOAD SWAP1 DUP2 ADD PUSH1 0x40 MSTORE DUP1 SWAP3 SWAP2 SWAP1 DUP2 DUP2 MSTORE PUSH1 0x20 ADD DUP3 DUP1 SLOAD PUSH2 0x231 SWAP1 PUSH2 0xA0D JUMP JUMPDEST DUP1 ISZERO PUSH2 0x27E JUMPI DUP1 PUSH1 0x1F LT PUSH2 0x253 JUMPI PUSH2 0x100 DUP1 DUP4 SLOAD DIV MUL DUP4 MSTORE SWAP2 PUSH1 0x20 ADD SWAP2 PUSH2 0x27E JUMP JUMPDEST DUP3 ADD SWAP2 SWAP1 PUSH1 0x0 MSTORE PUSH1 0x20 PUSH1 0x0 KECCAK256 SWAP1 JUMPDEST DUP2 SLOAD DUP2 MSTORE SWAP1 PUSH1 0x1 ADD SWAP1 PUSH1 0x20 ADD DUP1 DUP4 GT PUSH2 0x261 JUMPI DUP3 SWAP1 SUB PUSH1 0x1F AND DUP3 ADD SWAP2 JUMPDEST POP POP POP POP POP DUP2 MSTORE PUSH1 0x20 ADD PUSH1 0x2 DUP3 ADD PUSH1 0x0 SWAP1 SLOAD SWAP1 PUSH2 0x100 EXP SWAP1 DIV PUSH1 0xFF AND ISZERO ISZERO ISZERO ISZERO DUP2 MSTORE PUSH1 0x20 ADD PUSH1 0x3 DUP3 ADD SLOAD DUP2 MSTORE POP POP SWAP1 POP DUP1 PUSH1 0x0 ADD MLOAD DUP2 PUSH1 0x20 ADD MLOAD DUP3 PUSH1 0x60 ADD MLOAD SWAP4 POP SWAP4 POP SWAP4 POP POP SWAP2 SWAP4 SWAP1 SWAP3 POP JUMP JUMPDEST PUSH1 0x0 DUP2 DUP1 MLOAD PUSH1 0x20 DUP2 ADD DUP3 ADD DUP1 MLOAD DUP5 DUP3 MSTORE PUSH1 0x20 DUP4 ADD PUSH1 0x20 DUP6 ADD KECCAK256 DUP2 DUP4 MSTORE DUP1 SWAP6 POP POP POP POP POP POP PUSH1 0x0 SWAP2 POP SWAP1 POP DUP1 PUSH1 0x0 ADD DUP1 SLOAD PUSH2 0x304 SWAP1 PUSH2 0xA0D JUMP JUMPDEST DUP1 PUSH1 0x1F ADD PUSH1 0x20 DUP1 SWAP2 DIV MUL PUSH1 0x20 ADD PUSH1 0x40 MLOAD SWAP1 DUP2 ADD PUSH1 0x40 MSTORE DUP1 SWAP3 SWAP2 SWAP1 DUP2 DUP2 MSTORE PUSH1 0x20 ADD DUP3 DUP1 SLOAD PUSH2 0x330 SWAP1 PUSH2 0xA0D JUMP JUMPDEST DUP1 ISZERO PUSH2 0x37D JUMPI DUP1 PUSH1 0x1F LT PUSH2 0x352 JUMPI PUSH2 0x100 DUP1 DUP4 SLOAD DIV MUL DUP4 MSTORE SWAP2 PUSH1 0x20 ADD SWAP2 PUSH2 0x37D JUMP JUMPDEST DUP3 ADD SWAP2 SWAP1 PUSH1 0x0 MSTORE PUSH1 0x20 PUSH1 0x0 KECCAK256 SWAP1 JUMPDEST DUP2 SLOAD DUP2 MSTORE SWAP1 PUSH1 0x1 ADD SWAP1 PUSH1 0x20 ADD DUP1 DUP4 GT PUSH2 0x360 JUMPI DUP3 SWAP1 SUB PUSH1 0x1F AND DUP3 ADD SWAP2 JUMPDEST POP POP POP POP POP SWAP1 DUP1 PUSH1 0x1 ADD DUP1 SLOAD PUSH2 0x392 SWAP1 PUSH2 0xA0D JUMP JUMPDEST DUP1 PUSH1 0x1F ADD PUSH1 0x20 DUP1 SWAP2 DIV MUL PUSH1 0x20 ADD PUSH1 0x40 MLOAD SWAP1 DUP2 ADD PUSH1 0x40 MSTORE DUP1 SWAP3 SWAP2 SWAP1 DUP2 DUP2 MSTORE PUSH1 0x20 ADD DUP3 DUP1 SLOAD PUSH2 0x3BE SWAP1 PUSH2 0xA0D JUMP JUMPDEST DUP1 ISZERO PUSH2 0x40B JUMPI DUP1 PUSH1 0x1F LT PUSH2 0x3E0 JUMPI PUSH2 0x100 DUP1 DUP4 SLOAD DIV MUL DUP4 MSTORE SWAP2 PUSH1 0x20 ADD SWAP2 PUSH2 0x40B JUMP JUMPDEST DUP3 ADD SWAP2 SWAP1 PUSH1 0x0 MSTORE PUSH1 0x20 PUSH1 0x0 KECCAK256 SWAP1 JUMPDEST DUP2 SLOAD DUP2 MSTORE SWAP1 PUSH1 0x1 ADD SWAP1 PUSH1 0x20 ADD DUP1 DUP4 GT PUSH2 0x3EE JUMPI DUP3 SWAP1 SUB PUSH1 0x1F AND DUP3 ADD SWAP2 JUMPDEST POP POP POP POP POP SWAP1 DUP1 PUSH1 0x2 ADD PUSH1 0x0 SWAP1 SLOAD SWAP1 PUSH2 0x100 EXP SWAP1 DIV PUSH1 0xFF AND SWAP1 DUP1 PUSH1 0x3 ADD SLOAD SWAP1 POP DUP5 JUMP JUMPDEST PUSH1 0x0 DUP4 PUSH1 0x40 MLOAD PUSH2 0x43E SWAP2 SWAP1 PUSH2 0x95B JUMP JUMPDEST SWAP1 DUP2 MSTORE PUSH1 0x20 ADD PUSH1 0x40 MLOAD DUP1 SWAP2 SUB SWAP1 KECCAK256 PUSH1 0x2 ADD PUSH1 0x0 SWAP1 SLOAD SWAP1 PUSH2 0x100 EXP SWAP1 DIV PUSH1 0xFF AND ISZERO PUSH2 0x49D JUMPI PUSH1 0x40 MLOAD PUSH32 0x8C379A000000000000000000000000000000000000000000000000000000000 DUP2 MSTORE PUSH1 0x4 ADD PUSH2 0x494 SWAP1 PUSH2 0xA8A JUMP JUMPDEST PUSH1 0x40 MLOAD DUP1 SWAP2 SUB SWAP1 REVERT JUMPDEST PUSH1 0x40 MLOAD DUP1 PUSH1 0x80 ADD PUSH1 0x40 MSTORE DUP1 DUP4 DUP2 MSTORE PUSH1 0x20 ADD DUP3 DUP2 MSTORE PUSH1 0x20 ADD PUSH1 0x1 ISZERO ISZERO DUP2 MSTORE PUSH1 0x20 ADD TIMESTAMP DUP2 MSTORE POP PUSH1 0x0 DUP5 PUSH1 0x40 MLOAD PUSH2 0x4D1 SWAP2 SWAP1 PUSH2 0x95B JUMP JUMPDEST SWAP1 DUP2 MSTORE PUSH1 0x20 ADD PUSH1 0x40 MLOAD DUP1 SWAP2 SUB SWAP1 KECCAK256 PUSH1 0x0 DUP3 ADD MLOAD DUP2 PUSH1 0x0 ADD SWAP1 DUP2 PUSH2 0x4F4 SWAP2 SWAP1 PUSH2 0xC56 JUMP JUMPDEST POP PUSH1 0x20 DUP3 ADD MLOAD DUP2 PUSH1 0x1 ADD SWAP1 DUP2 PUSH2 0x50A SWAP2 SWAP1 PUSH2 0xC56 JUMP JUMPDEST POP PUSH1 0x40 DUP3 ADD MLOAD DUP2 PUSH1 0x2 ADD PUSH1 0x0 PUSH2 0x100 EXP DUP2 SLOAD DUP2 PUSH1 0xFF MUL NOT AND SWAP1 DUP4 ISZERO ISZERO MUL OR SWAP1 SSTORE POP PUSH1 0x60 DUP3 ADD MLOAD DUP2 PUSH1 0x3 ADD SSTORE SWAP1 POP POP DUP3 PUSH1 0x40 MLOAD PUSH2 0x546 SWAP2 SWAP1 PUSH2 0x95B JUMP JUMPDEST PUSH1 0x40 MLOAD DUP1 SWAP2 SUB SWAP1 KECCAK256 PUSH32 0x4F63B101254C6D55638976C7C7B2E44FF57476ECF4C4C9CDC27CF3049E21C250 DUP3 PUSH1 0x40 MLOAD PUSH2 0x57D SWAP2 SWAP1 PUSH2 0xD28 JUMP JUMPDEST PUSH1 0x40 MLOAD DUP1 SWAP2 SUB SWAP1 LOG2 POP POP POP JUMP JUMPDEST PUSH1 0x0 PUSH1 0x40 MLOAD SWAP1 POP SWAP1 JUMP JUMPDEST PUSH1 0x0 DUP1 REVERT JUMPDEST PUSH1 0x0 DUP1 REVERT JUMPDEST PUSH1 0x0 DUP1 REVERT JUMPDEST PUSH1 0x0 DUP1 REVERT JUMPDEST PUSH1 0x0 PUSH1 0x1F NOT PUSH1 0x1F DUP4 ADD AND SWAP1 POP SWAP2 SWAP1 POP JUMP JUMPDEST PUSH32 0x4E487B7100000000000000000000000000000000000000000000000000000000 PUSH1 0x0 MSTORE PUSH1 0x41 PUSH1 0x4 MSTORE PUSH1 0x24 PUSH1 0x0 REVERT JUMPDEST PUSH2 0x5F1 DUP3 PUSH2 0x5A8 JUMP JUMPDEST DUP2 ADD DUP2 DUP2 LT PUSH8 0xFFFFFFFFFFFFFFFF DUP3 GT OR ISZERO PUSH2 0x610 JUMPI PUSH2 0x60F PUSH2 0x5B9 JUMP JUMPDEST JUMPDEST DUP1 PUSH1 0x40 MSTORE POP POP POP JUMP JUMPDEST PUSH1 0x0 PUSH2 0x623 PUSH2 0x58A JUMP JUMPDEST SWAP1 POP PUSH2 0x62F DUP3 DUP3 PUSH2 0x5E8 JUMP JUMPDEST SWAP2 SWAP1 POP JUMP JUMPDEST PUSH1 0x0 PUSH8 0xFFFFFFFFFFFFFFFF DUP3 GT ISZERO PUSH2 0x64F JUMPI PUSH2 0x64E PUSH2 0x5B9 JUMP JUMPDEST JUMPDEST PUSH2 0x658 DUP3 PUSH2 0x5A8 JUMP JUMPDEST SWAP1 POP PUSH1 0x20 DUP2 ADD SWAP1 POP SWAP2 SWAP1 POP JUMP JUMPDEST DUP3 DUP2 DUP4 CALLDATACOPY PUSH1 0x0 DUP4 DUP4 ADD MSTORE POP POP POP JUMP JUMPDEST PUSH1 0x0 PUSH2 0x687 PUSH2 0x682 DUP5 PUSH2 0x634 JUMP JUMPDEST PUSH2 0x619 JUMP JUMPDEST SWAP1 POP DUP3 DUP2 MSTORE PUSH1 0x20 DUP2 ADD DUP5 DUP5 DUP5 ADD GT ISZERO PUSH2 0x6A3 JUMPI PUSH2 0x6A2 PUSH2 0x5A3 JUMP JUMPDEST JUMPDEST PUSH2 0x6AE DUP5 DUP3 DUP6 PUSH2 0x665 JUMP JUMPDEST POP SWAP4 SWAP3 POP POP POP JUMP JUMPDEST PUSH1 0x0 DUP3 PUSH1 0x1F DUP4 ADD SLT PUSH2 0x6CB JUMPI PUSH2 0x6CA PUSH2 0x59E JUMP JUMPDEST JUMPDEST DUP2 CALLDATALOAD PUSH2 0x6DB DUP5 DUP3 PUSH1 0x20 DUP7 ADD PUSH2 0x674 JUMP JUMPDEST SWAP2 POP POP SWAP3 SWAP2 POP POP JUMP JUMPDEST PUSH1 0x0 PUSH1 0x20 DUP3 DUP5 SUB SLT ISZERO PUSH2 0x6FA JUMPI PUSH2 0x6F9 PUSH2 0x594 JUMP JUMPDEST JUMPDEST PUSH1 0x0 DUP3 ADD CALLDATALOAD PUSH8 0xFFFFFFFFFFFFFFFF DUP2 GT ISZERO PUSH2 0x718 JUMPI PUSH2 0x717 PUSH2 0x599 JUMP JUMPDEST JUMPDEST PUSH2 0x724 DUP5 DUP3 DUP6 ADD PUSH2 0x6B6 JUMP JUMPDEST SWAP2 POP POP SWAP3 SWAP2 POP POP JUMP JUMPDEST PUSH1 0x0 DUP2 MLOAD SWAP1 POP SWAP2 SWAP1 POP JUMP JUMPDEST PUSH1 0x0 DUP3 DUP3 MSTORE PUSH1 0x20 DUP3 ADD SWAP1 POP SWAP3 SWAP2 POP POP JUMP JUMPDEST PUSH1 0x0 JUMPDEST DUP4 DUP2 LT ISZERO PUSH2 0x767 JUMPI DUP1 DUP3 ADD MLOAD DUP2 DUP5 ADD MSTORE PUSH1 0x20 DUP2 ADD SWAP1 POP PUSH2 0x74C JUMP JUMPDEST PUSH1 0x0 DUP5 DUP5 ADD MSTORE POP POP POP POP JUMP JUMPDEST PUSH1 0x0 PUSH2 0x77E DUP3 PUSH2 0x72D JUMP JUMPDEST PUSH2 0x788 DUP2 DUP6 PUSH2 0x738 JUMP JUMPDEST SWAP4 POP PUSH2 0x798 DUP2 DUP6 PUSH1 0x20 DUP7 ADD PUSH2 0x749 JUMP JUMPDEST PUSH2 0x7A1 DUP2 PUSH2 0x5A8 JUMP JUMPDEST DUP5 ADD SWAP2 POP POP SWAP3 SWAP2 POP POP JUMP JUMPDEST PUSH1 0x0 DUP2 SWAP1 POP SWAP2 SWAP1 POP JUMP JUMPDEST PUSH2 0x7BF DUP2 PUSH2 0x7AC JUMP JUMPDEST DUP3 MSTORE POP POP JUMP JUMPDEST PUSH1 0x0 PUSH1 0x60 DUP3 ADD SWAP1 POP DUP2 DUP2 SUB PUSH1 0x0 DUP4 ADD MSTORE PUSH2 0x7DF DUP2 DUP7 PUSH2 0x773 JUMP JUMPDEST SWAP1 POP DUP2 DUP2 SUB PUSH1 0x20 DUP4 ADD MSTORE PUSH2 0x7F3 DUP2 DUP6 PUSH2 0x773 JUMP JUMPDEST SWAP1 POP PUSH2 0x802 PUSH1 0x40 DUP4 ADD DUP5 PUSH2 0x7B6 JUMP JUMPDEST SWAP5 SWAP4 POP POP POP POP JUMP JUMPDEST PUSH1 0x0 DUP2 ISZERO ISZERO SWAP1 POP SWAP2 SWAP1 POP JUMP JUMPDEST PUSH2 0x81F DUP2 PUSH2 0x80A JUMP JUMPDEST DUP3 MSTORE POP POP JUMP JUMPDEST PUSH1 0x0 PUSH1 0x80 DUP3 ADD SWAP1 POP DUP2 DUP2 SUB PUSH1 0x0 DUP4 ADD MSTORE PUSH2 0x83F DUP2 DUP8 PUSH2 0x773 JUMP JUMPDEST SWAP1 POP DUP2 DUP2 SUB PUSH1 0x20 DUP4 ADD MSTORE PUSH2 0x853 DUP2 DUP7 PUSH2 0x773 JUMP JUMPDEST SWAP1 POP PUSH2 0x862 PUSH1 0x40 DUP4 ADD DUP6 PUSH2 0x816 JUMP JUMPDEST PUSH2 0x86F PUSH1 0x60 DUP4 ADD DUP5 PUSH2 0x7B6 JUMP JUMPDEST SWAP6 SWAP5 POP POP POP POP POP JUMP JUMPDEST PUSH1 0x0 DUP1 PUSH1 0x0 PUSH1 0x60 DUP5 DUP7 SUB SLT ISZERO PUSH2 0x891 JUMPI PUSH2 0x890 PUSH2 0x594 JUMP JUMPDEST JUMPDEST PUSH1 0x0 DUP5 ADD CALLDATALOAD PUSH8 0xFFFFFFFFFFFFFFFF DUP2 GT ISZERO PUSH2 0x8AF JUMPI PUSH2 0x8AE PUSH2 0x599 JUMP JUMPDEST JUMPDEST PUSH2 0x8BB DUP7 DUP3 DUP8 ADD PUSH2 0x6B6 JUMP JUMPDEST SWAP4 POP POP PUSH1 0x20 DUP5 ADD CALLDATALOAD PUSH8 0xFFFFFFFFFFFFFFFF DUP2 GT ISZERO PUSH2 0x8DC JUMPI PUSH2 0x8DB PUSH2 0x599 JUMP JUMPDEST JUMPDEST PUSH2 0x8E8 DUP7 DUP3 DUP8 ADD PUSH2 0x6B6 JUMP JUMPDEST SWAP3 POP POP PUSH1 0x40 DUP5 ADD CALLDATALOAD PUSH8 0xFFFFFFFFFFFFFFFF DUP2 GT ISZERO PUSH2 0x909 JUMPI PUSH2 0x908 PUSH2 0x599 JUMP JUMPDEST JUMPDEST PUSH2 0x915 DUP7 DUP3 DUP8 ADD PUSH2 0x6B6 JUMP JUMPDEST SWAP2 POP POP SWAP3 POP SWAP3 POP SWAP3 JUMP JUMPDEST PUSH1 0x0 DUP2 SWAP1 POP SWAP3 SWAP2 POP POP JUMP JUMPDEST PUSH1 0x0 PUSH2 0x935 DUP3 PUSH2 0x72D JUMP JUMPDEST PUSH2 0x93F DUP2 DUP6 PUSH2 0x91F JUMP JUMPDEST SWAP4 POP PUSH2 0x94F DUP2 DUP6 PUSH1 0x20 DUP7 ADD PUSH2 0x749 JUMP JUMPDEST DUP1 DUP5 ADD SWAP2 POP POP SWAP3 SWAP2 POP POP JUMP JUMPDEST PUSH1 0x0 PUSH2 0x967 DUP3 DUP5 PUSH2 0x92A JUMP JUMPDEST SWAP2 POP DUP2 SWAP1 POP SWAP3 SWAP2 POP POP JUMP JUMPDEST PUSH32 0x446F63756D656E746F206E6F6E2074726F7661746F0000000000000000000000 PUSH1 0x0 DUP3 ADD MSTORE POP JUMP JUMPDEST PUSH1 0x0 PUSH2 0x9A8 PUSH1 0x15 DUP4 PUSH2 0x738 JUMP JUMPDEST SWAP2 POP PUSH2 0x9B3 DUP3 PUSH2 0x972 JUMP JUMPDEST PUSH1 0x20 DUP3 ADD SWAP1 POP SWAP2 SWAP1 POP JUMP JUMPDEST PUSH1 0x0 PUSH1 0x20 DUP3 ADD SWAP1 POP DUP2 DUP2 SUB PUSH1 0x0 DUP4 ADD MSTORE PUSH2 0x9D7 DUP2 PUSH2 0x99B JUMP JUMPDEST SWAP1 POP SWAP2 SWAP1 POP JUMP JUMPDEST PUSH32 0x4E487B7100000000000000000000000000000000000000000000000000000000 PUSH1 0x0 MSTORE PUSH1 0x22 PUSH1 0x4 MSTORE PUSH1 0x24 PUSH1 0x0 REVERT JUMPDEST PUSH1 0x0 PUSH1 0x2 DUP3 DIV SWAP1 POP PUSH1 0x1 DUP3 AND DUP1 PUSH2 0xA25 JUMPI PUSH1 0x7F DUP3 AND SWAP2 POP JUMPDEST PUSH1 0x20 DUP3 LT DUP2 SUB PUSH2 0xA38 JUMPI PUSH2 0xA37 PUSH2 0x9DE JUMP JUMPDEST JUMPDEST POP SWAP2 SWAP1 POP JUMP JUMPDEST PUSH32 0x446F63756D656E746F2067696127206573697374656E74650000000000000000 PUSH1 0x0 DUP3 ADD MSTORE POP JUMP JUMPDEST PUSH1 0x0 PUSH2 0xA74 PUSH1 0x18 DUP4 PUSH2 0x738 JUMP JUMPDEST SWAP2 POP PUSH2 0xA7F DUP3 PUSH2 0xA3E JUMP JUMPDEST PUSH1 0x20 DUP3 ADD SWAP1 POP SWAP2 SWAP1 POP JUMP JUMPDEST PUSH1 0x0 PUSH1 0x20 DUP3 ADD SWAP1 POP DUP2 DUP2 SUB PUSH1 0x0 DUP4 ADD MSTORE PUSH2 0xAA3 DUP2 PUSH2 0xA67 JUMP JUMPDEST SWAP1 POP SWAP2 SWAP1 POP JUMP JUMPDEST PUSH1 0x0 DUP2 SWAP1 POP DUP2 PUSH1 0x0 MSTORE PUSH1 0x20 PUSH1 0x0 KECCAK256 SWAP1 POP SWAP2 SWAP1 POP JUMP JUMPDEST PUSH1 0x0 PUSH1 0x20 PUSH1 0x1F DUP4 ADD DIV SWAP1 POP SWAP2 SWAP1 POP JUMP JUMPDEST PUSH1 0x0 DUP3 DUP3 SHL SWAP1 POP SWAP3 SWAP2 POP POP JUMP JUMPDEST PUSH1 0x0 PUSH1 0x8 DUP4 MUL PUSH2 0xB0C PUSH32 0xFFFFFFFFFFFFFFFFFFFFFFFFFFFFFFFFFFFFFFFFFFFFFFFFFFFFFFFFFFFFFFFF DUP3 PUSH2 0xACF JUMP JUMPDEST PUSH2 0xB16 DUP7 DUP4 PUSH2 0xACF JUMP JUMPDEST SWAP6 POP DUP1 NOT DUP5 AND SWAP4 POP DUP1 DUP7 AND DUP5 OR SWAP3 POP POP POP SWAP4 SWAP3 POP POP POP JUMP JUMPDEST PUSH1 0x0 DUP2 SWAP1 POP SWAP2 SWAP1 POP JUMP JUMPDEST PUSH1 0x0 PUSH2 0xB53 PUSH2 0xB4E PUSH2 0xB49 DUP5 PUSH2 0x7AC JUMP JUMPDEST PUSH2 0xB2E JUMP JUMPDEST PUSH2 0x7AC JUMP JUMPDEST SWAP1 POP SWAP2 SWAP1 POP JUMP JUMPDEST PUSH1 0x0 DUP2 SWAP1 POP SWAP2 SWAP1 POP JUMP JUMPDEST PUSH2 0xB6D DUP4 PUSH2 0xB38 JUMP JUMPDEST PUSH2 0xB81 PUSH2 0xB79 DUP3 PUSH2 0xB5A JUMP JUMPDEST DUP5 DUP5 SLOAD PUSH2 0xADC JUMP JUMPDEST DUP3 SSTORE POP POP POP POP JUMP JUMPDEST PUSH1 0x0 SWAP1 JUMP JUMPDEST PUSH2 0xB96 PUSH2 0xB89 JUMP JUMPDEST PUSH2 0xBA1 DUP2 DUP5 DUP5 PUSH2 0xB64 JUMP JUMPDEST POP POP POP JUMP JUMPDEST JUMPDEST DUP2 DUP2 LT ISZERO PUSH2 0xBC5 JUMPI PUSH2 0xBBA PUSH1 0x0 DUP3 PUSH2 0xB8E JUMP JUMPDEST PUSH1 0x1 DUP2 ADD SWAP1 POP PUSH2 0xBA7 JUMP JUMPDEST POP POP JUMP JUMPDEST PUSH1 0x1F DUP3 GT ISZERO PUSH2 0xC0A JUMPI PUSH2 0xBDB DUP2 PUSH2 0xAAA JUMP JUMPDEST PUSH2 0xBE4 DUP5 PUSH2 0xABF JUMP JUMPDEST DUP2 ADD PUSH1 0x20 DUP6 LT ISZERO PUSH2 0xBF3 JUMPI DUP2 SWAP1 POP JUMPDEST PUSH2 0xC07 PUSH2 0xBFF DUP6 PUSH2 0xABF JUMP JUMPDEST DUP4 ADD DUP3 PUSH2 0xBA6 JUMP JUMPDEST POP POP JUMPDEST POP POP POP JUMP JUMPDEST PUSH1 0x0 DUP3 DUP3 SHR SWAP1 POP SWAP3 SWAP2 POP POP JUMP JUMPDEST PUSH1 0x0 PUSH2 0xC2D PUSH1 0x0 NOT DUP5 PUSH1 0x8 MUL PUSH2 0xC0F JUMP JUMPDEST NOT DUP1 DUP4 AND SWAP2 POP POP SWAP3 SWAP2 POP POP JUMP JUMPDEST PUSH1 0x0 PUSH2 0xC46 DUP4 DUP4 PUSH2 0xC1C JUMP JUMPDEST SWAP2 POP DUP3 PUSH1 0x2 MUL DUP3 OR SWAP1 POP SWAP3 SWAP2 POP POP JUMP JUMPDEST PUSH2 0xC5F DUP3 PUSH2 0x72D JUMP JUMPDEST PUSH8 0xFFFFFFFFFFFFFFFF DUP2 GT ISZERO PUSH2 0xC78 JUMPI PUSH2 0xC77 PUSH2 0x5B9 JUMP JUMPDEST JUMPDEST PUSH2 0xC82 DUP3 SLOAD PUSH2 0xA0D JUMP JUMPDEST PUSH2 0xC8D DUP3 DUP3 DUP6 PUSH2 0xBC9 JUMP JUMPDEST PUSH1 0x0 PUSH1 0x20 SWAP1 POP PUSH1 0x1F DUP4 GT PUSH1 0x1 DUP2 EQ PUSH2 0xCC0 JUMPI PUSH1 0x0 DUP5 ISZERO PUSH2 0xCAE JUMPI DUP3 DUP8 ADD MLOAD SWAP1 POP JUMPDEST PUSH2 0xCB8 DUP6 DUP3 PUSH2 0xC3A JUMP JUMPDEST DUP7 SSTORE POP PUSH2 0xD20 JUMP JUMPDEST PUSH1 0x1F NOT DUP5 AND PUSH2 0xCCE DUP7 PUSH2 0xAAA JUMP JUMPDEST PUSH1 0x0 JUMPDEST DUP3 DUP2 LT ISZERO PUSH2 0xCF6 JUMPI DUP5 DUP10 ADD MLOAD DUP3 SSTORE PUSH1 0x1 DUP3 ADD SWAP2 POP PUSH1 0x20 DUP6 ADD SWAP5 POP PUSH1 0x20 DUP2 ADD SWAP1 POP PUSH2 0xCD1 JUMP JUMPDEST DUP7 DUP4 LT ISZERO PUSH2 0xD13 JUMPI DUP5 DUP10 ADD MLOAD PUSH2 0xD0F PUSH1 0x1F DUP10 AND DUP3 PUSH2 0xC1C JUMP JUMPDEST DUP4 SSTORE POP JUMPDEST PUSH1 0x1 PUSH1 0x2 DUP9 MUL ADD DUP9 SSTORE POP POP POP JUMPDEST POP POP POP POP POP POP JUMP JUMPDEST PUSH1 0x0 PUSH1 0x20 DUP3 ADD SWAP1 POP DUP2 DUP2 SUB PUSH1 0x0 DUP4 ADD MSTORE PUSH2 0xD42 DUP2 DUP5 PUSH2 0x773 JUMP JUMPDEST SWAP1 POP SWAP3 SWAP2 POP POP JUMP INVALID LOG2 PUSH5 0x6970667358 0x22 SLT KECCAK256 0xC9 0x1F CALLER 0xE4 0x2A BALANCE SWAP6 SWAP9 0xD5 0xCB 0x1F SWAP5 0xF SHL DUP1 PUSH22 0x28C6223F7412D766248CAC04163FFAD064736F6C6343 STOP ADDMOD XOR STOP CALLER "},"methodIdentifiers":{"documents(string)":"b3dd697b","getDocument(string)":"7ccb6a64","storeDocument(string,string,string)":"f2d893e4"}}}}}