{"contracts/delegationHub.sol":{"DelegationHub":{"abi":[{"anonymous":false,"inputs":[{"indexed":true,"internalType":"string","name":"txHash","type":"string"},{"indexed":true,"internalType":"address","name":"requestor","type":"address"},{"indexed":false,"internalType":"bool","name":"allowed","type":"bool"}],"name":"AccessCheckResult","type":"event"},{"anonymous":false,"inputs":[{"indexed":true,"internalType":"string","name":"txHash","type":"string"},{"indexed":true,"internalType":"address","name":"user","type":"address"},{"indexed":false,"internalType":"uint8","name":"level","type":"uint8"}],"name":"AccessGranted","type":"event"},{"inputs":[{"internalType":"string","name":"","type":"string"},{"internalType":"address","name":"","type":"address"}],"name":"documentPermissions","outputs":[{"internalType":"bool","name":"isValid","type":"bool"},{"internalType":"uint256","name":"expiryTime","type":"uint256"},{"internalType":"uint8","name":"delegationDepth","type":"uint8"}],"stateMutability":"view","type":"function"},{"inputs":[{"internalType":"string","name":"_txHash","type":"string"},{"internalType":"address","name":"_delegate","type":"address"},{"internalType":"uint256","name":"_minutesDuration","type":"uint256"},{"internalType":"uint8","name":"_depth","type":"uint8"}],"name":"grantAccess","outputs":[],"stateMutability":"nonpayable","type":"function"},{"inputs":[{"internalType":"string","name":"_txHash","type":"string"}],"name":"verifyDocumentAccess","outputs":[],"stateMutability":"nonpayable","type":"function"}],"evm":{"bytecode":{"linkReferences":{},"object":"608060405234801561001057600080fd5b506108f5806100206000396000f3fe608060405234801561001057600080fd5b50600436106100415760003560e01c80632d7107f81461004657806384c3071614610062578063d531f38314610094575b600080fd5b610060600480360381019061005b91906104f7565b6100b0565b005b61007c6004803603810190610077919061059e565b6101e5565b60405161008b9392919061064a565b60405180910390f35b6100ae60048036038101906100a991906106d9565b61024c565b005b600080826040516100c191906107cd565b908152602001604051809103902060003373ffffffffffffffffffffffffffffffffffffffff1673ffffffffffffffffffffffffffffffffffffffff1681526020019081526020016000206040518060600160405290816000820160009054906101000a900460ff16151515158152602001600182015481526020016002820160009054906101000a900460ff1660ff1660ff16815250509050600081600001518015610172575081602001514211155b1561017c57600190505b3373ffffffffffffffffffffffffffffffffffffffff16836040516101a191906107cd565b60405180910390207f9614d34f8db3d9931f2c0351c5d125d53573a18874766926a6b1d93cfba4ce07836040516101d891906107e4565b60405180910390a3505050565b600082805160208101820180518482526020830160208501208183528095505050505050602052806000526040600020600091509150508060000160009054906101000a900460ff16908060010154908060020160009054906101000a900460ff16905083565b6000603c8361025b919061082e565b426102669190610870565b905060405180606001604052806001151581526020018281526020018360ff1681525060008660405161029991906107cd565b908152602001604051809103902060008673ffffffffffffffffffffffffffffffffffffffff1673ffffffffffffffffffffffffffffffffffffffff16815260200190815260200160002060008201518160000160006101000a81548160ff0219169083151502179055506020820151816001015560408201518160020160006101000a81548160ff021916908360ff1602179055509050508373ffffffffffffffffffffffffffffffffffffffff168560405161035791906107cd565b60405180910390207f115f6ef52391618892f3a77f23446f2b996b12f28b601e7d85f2b8d372436c718460405161038e91906108a4565b60405180910390a35050505050565b6000604051905090565b600080fd5b600080fd5b600080fd5b600080fd5b6000601f19601f8301169050919050565b7f4e487b7100000000000000000000000000000000000000000000000000000000600052604160045260246000fd5b610404826103bb565b810181811067ffffffffffffffff82111715610423576104226103cc565b5b80604052505050565b600061043661039d565b905061044282826103fb565b919050565b600067ffffffffffffffff821115610462576104616103cc565b5b61046b826103bb565b9050602081019050919050565b82818337600083830152505050565b600061049a61049584610447565b61042c565b9050828152602081018484840111156104b6576104b56103b6565b5b6104c1848285610478565b509392505050565b600082601f8301126104de576104dd6103b1565b5b81356104ee848260208601610487565b91505092915050565b60006020828403121561050d5761050c6103a7565b5b600082013567ffffffffffffffff81111561052b5761052a6103ac565b5b610537848285016104c9565b91505092915050565b600073ffffffffffffffffffffffffffffffffffffffff82169050919050565b600061056b82610540565b9050919050565b61057b81610560565b811461058657600080fd5b50565b60008135905061059881610572565b92915050565b600080604083850312156105b5576105b46103a7565b5b600083013567ffffffffffffffff8111156105d3576105d26103ac565b5b6105df858286016104c9565b92505060206105f085828601610589565b9150509250929050565b60008115159050919050565b61060f816105fa565b82525050565b6000819050919050565b61062881610615565b82525050565b600060ff82169050919050565b6106448161062e565b82525050565b600060608201905061065f6000830186610606565b61066c602083018561061f565b610679604083018461063b565b949350505050565b61068a81610615565b811461069557600080fd5b50565b6000813590506106a781610681565b92915050565b6106b68161062e565b81146106c157600080fd5b50565b6000813590506106d3816106ad565b92915050565b600080600080608085870312156106f3576106f26103a7565b5b600085013567ffffffffffffffff811115610711576107106103ac565b5b61071d878288016104c9565b945050602061072e87828801610589565b935050604061073f87828801610698565b9250506060610750878288016106c4565b91505092959194509250565b600081519050919050565b600081905092915050565b60005b83811015610790578082015181840152602081019050610775565b60008484015250505050565b60006107a78261075c565b6107b18185610767565b93506107c1818560208601610772565b80840191505092915050565b60006107d9828461079c565b915081905092915050565b60006020820190506107f96000830184610606565b92915050565b7f4e487b7100000000000000000000000000000000000000000000000000000000600052601160045260246000fd5b600061083982610615565b915061084483610615565b925082820261085281610615565b91508282048414831517610869576108686107ff565b5b5092915050565b600061087b82610615565b915061088683610615565b925082820190508082111561089e5761089d6107ff565b5b92915050565b60006020820190506108b9600083018461063b565b9291505056fea264697066735822122041242d33ccd86053ed963333578cd72fa52248b6fc9041837c3d159f17cee83164736f6c63430008180033","opcodes":"PUSH1 0x80 PUSH1 0x40 MSTORE CALLVALUE DUP1 ISZERO PUSH2 0x10 JUMPI PUSH1 0x0 DUP1 REVERT JUMPDEST POP PUSH2 0x8F5 DUP1 PUSH2 0x20 PUSH1 0x0 CODECOPY PUSH1 0x0 RETURN INVALID PUSH1 0x80 PUSH1 0x40 MSTORE CALLVALUE DUP1 ISZERO PUSH2 0x10 JUMPI PUSH1 0x0 DUP1 REVERT JUMPDEST POP PUSH1 0x4 CALLDATASIZE LT PUSH2 0x41 JUMPI PUSH1 0x0 CALLDATALOAD PUSH1 0xE0 SHR DUP1 PUSH4 0x2D7107F8 EQ PUSH2 0x46 JUMPI DUP1 PUSH4 0x84C30716 EQ PUSH2 0x62 JUMPI DUP1 PUSH4 0xD531F383 EQ PUSH2 0x94 JUMPI JUMPDEST PUSH1 0x0 DUP1 REVERT JUMPDEST PUSH2 0x60 PUSH1 0x4 DUP1 CALLDATASIZE SUB DUP2 ADD SWAP1 PUSH2 0x5B SWAP2 SWAP1 PUSH2 0x4F7 JUMP JUMPDEST PUSH2 0xB0 JUMP JUMPDEST STOP JUMPDEST PUSH2 0x7C PUSH1 0x4 DUP1 CALLDATASIZE SUB DUP2 ADD SWAP1 PUSH2 0x77 SWAP2 SWAP1 PUSH2 0x59E JUMP JUMPDEST PUSH2 0x1E5 JUMP JUMPDEST PUSH1 0x40 MLOAD PUSH2 0x8B SWAP4 SWAP3 SWAP2 SWAP1 PUSH2 0x64A JUMP JUMPDEST PUSH1 0x40 MLOAD DUP1 SWAP2 SUB SWAP1 RETURN JUMPDEST PUSH2 0xAE PUSH1 0x4 DUP1 CALLDATASIZE SUB DUP2 ADD SWAP1 PUSH2 0xA9 SWAP2 SWAP1 PUSH2 0x6D9 JUMP JUMPDEST PUSH2 0x24C JUMP JUMPDEST STOP JUMPDEST PUSH1 0x0 DUP1 DUP3 PUSH1 0x40 MLOAD PUSH2 0xC1 SWAP2 SWAP1 PUSH2 0x7CD JUMP JUMPDEST SWAP1 DUP2 MSTORE PUSH1 0x20 ADD PUSH1 0x40 MLOAD DUP1 SWAP2 SUB SWAP1 KECCAK256 PUSH1 0x0 CALLER PUSH20 0xFFFFFFFFFFFFFFFFFFFFFFFFFFFFFFFFFFFFFFFF AND PUSH20 0xFFFFFFFFFFFFFFFFFFFFFFFFFFFFFFFFFFFFFFFF AND DUP2 MSTORE PUSH1 0x20 ADD SWAP1 DUP2 MSTORE PUSH1 0x20 ADD PUSH1 0x0 KECCAK256 PUSH1 0x40 MLOAD DUP1 PUSH1 0x60 ADD PUSH1 0x40 MSTORE SWAP1 DUP2 PUSH1 0x0 DUP3 ADD PUSH1 0x0 SWAP1 SLOAD SWAP1 PUSH2 0x100 EXP SWAP1 DIV PUSH1 0xFF AND ISZERO ISZERO ISZERO ISZERO DUP2 MSTORE PUSH1 0x20 ADD PUSH1 0x1 DUP3 ADD SLOAD DUP2 MSTORE PUSH1 0x20 ADD PUSH1 0x2 DUP3 ADD PUSH1 0x0 SWAP1 SLOAD SWAP1 PUSH2 0x100 EXP SWAP1 DIV PUSH1 0xFF AND PUSH1 0xFF AND PUSH1 0xFF AND DUP2 MSTORE POP POP SWAP1 POP PUSH1 0x0 DUP2 PUSH1 0x0 ADD MLOAD DUP1 ISZERO PUSH2 0x172 JUMPI POP DUP2 PUSH1 0x20 ADD MLOAD TIMESTAMP GT ISZERO JUMPDEST ISZERO PUSH2 0x17C JUMPI PUSH1 0x1 SWAP1 POP JUMPDEST CALLER PUSH20 0xFFFFFFFFFFFFFFFFFFFFFFFFFFFFFFFFFFFFFFFF AND DUP4 PUSH1 0x40 MLOAD PUSH2 0x1A1 SWAP2 SWAP1 PUSH2 0x7CD JUMP JUMPDEST PUSH1 0x40 MLOAD DUP1 SWAP2 SUB SWAP1 KECCAK256 PUSH32 0x9614D34F8DB3D9931F2C0351C5D125D53573A18874766926A6B1D93CFBA4CE07 DUP4 PUSH1 0x40 MLOAD PUSH2 0x1D8 SWAP2 SWAP1 PUSH2 0x7E4 JUMP JUMPDEST PUSH1 0x40 MLOAD DUP1 SWAP2 SUB SWAP1 LOG3 POP POP POP JUMP JUMPDEST PUSH1 0x0 DUP3 DUP1 MLOAD PUSH1 0x20 DUP2 ADD DUP3 ADD DUP1 MLOAD DUP5 DUP3 MSTORE PUSH1 0x20 DUP4 ADD PUSH1 0x20 DUP6 ADD KECCAK256 DUP2 DUP4 MSTORE DUP1 SWAP6 POP POP POP POP POP POP PUSH1 0x20 MSTORE DUP1 PUSH1 0x0 MSTORE PUSH1 0x40 PUSH1 0x0 KECCAK256 PUSH1 0x0 SWAP2 POP SWAP2 POP POP DUP1 PUSH1 0x0 ADD PUSH1 0x0 SWAP1 SLOAD SWAP1 PUSH2 0x100 EXP SWAP1 DIV PUSH1 0xFF AND SWAP1 DUP1 PUSH1 0x1 ADD SLOAD SWAP1 DUP1 PUSH1 0x2 ADD PUSH1 0x0 SWAP1 SLOAD SWAP1 PUSH2 0x100 EXP SWAP1 DIV PUSH1 0xFF AND SWAP1 POP DUP4 JUMP JUMPDEST PUSH1 0x0 PUSH1 0x3C DUP4 PUSH2 0x25B SWAP2 SWAP1 PUSH2 0x82E JUMP JUMPDEST TIMESTAMP PUSH2 0x266 SWAP2 SWAP1 PUSH2 0x870 JUMP JUMPDEST SWAP1 POP PUSH1 0x40 MLOAD DUP1 PUSH1 0x60 ADD PUSH1 0x40 MSTORE DUP1 PUSH1 0x1 ISZERO ISZERO DUP2 MSTORE PUSH1 0x20 ADD DUP3 DUP2 MSTORE PUSH1 0x20 ADD DUP4 PUSH1 0xFF AND DUP2 MSTORE POP PUSH1 0x0 DUP7 PUSH1 0x40 MLOAD PUSH2 0x299 SWAP2 SWAP1 PUSH2 0x7CD JUMP JUMPDEST SWAP1 DUP2 MSTORE PUSH1 0x20 ADD PUSH1 0x40 MLOAD DUP1 SWAP2 SUB SWAP1 KECCAK256 PUSH1 0x0 DUP7 PUSH20 0xFFFFFFFFFFFFFFFFFFFFFFFFFFFFFFFFFFFFFFFF AND PUSH20 0xFFFFFFFFFFFFFFFFFFFFFFFFFFFFFFFFFFFFFFFF AND DUP2 MSTORE PUSH1 0x20 ADD SWAP1 DUP2 MSTORE PUSH1 0x20 ADD PUSH1 0x0 KECCAK256 PUSH1 0x0 DUP3 ADD MLOAD DUP2 PUSH1 0x0 ADD PUSH1 0x0 PUSH2 0x100 EXP DUP2 SLOAD DUP2 PUSH1 0xFF MUL NOT AND SWAP1 DUP4 ISZERO ISZERO MUL OR SWAP1 SSTORE POP PUSH1 0x20 DUP3 ADD MLOAD DUP2 PUSH1 0x1 ADD SSTORE PUSH1 0x40 DUP3 ADD MLOAD DUP2 PUSH1 0x2 ADD PUSH1 0x0 PUSH2 0x100 EXP DUP2 SLOAD DUP2 PUSH1 0xFF MUL NOT AND SWAP1 DUP4 PUSH1 0xFF AND MUL OR SWAP1 SSTORE POP SWAP1 POP POP DUP4 PUSH20 0xFFFFFFFFFFFFFFFFFFFFFFFFFFFFFFFFFFFFFFFF AND DUP6 PUSH1 0x40 MLOAD PUSH2 0x357 SWAP2 SWAP1 PUSH2 0x7CD JUMP JUMPDEST PUSH1 0x40 MLOAD DUP1 SWAP2 SUB SWAP1 KECCAK256 PUSH32 0x115F6EF52391618892F3A77F23446F2B996B12F28B601E7D85F2B8D372436C71 DUP5 PUSH1 0x40 MLOAD PUSH2 0x38E SWAP2 SWAP1 PUSH2 0x8A4 JUMP JUMPDEST PUSH1 0x40 MLOAD DUP1 SWAP2 SUB SWAP1 LOG3 POP POP POP POP POP JUMP JUMPDEST PUSH1 0x0 PUSH1 0x40 MLOAD SWAP1 POP SWAP1 JUMP JUMPDEST PUSH1 0x0 DUP1 REVERT JUMPDEST PUSH1 0x0 DUP1 REVERT JUMPDEST PUSH1 0x0 DUP1 REVERT JUMPDEST PUSH1 0x0 DUP1 REVERT JUMPDEST PUSH1 0x0 PUSH1 0x1F NOT PUSH1 0x1F DUP4 ADD AND SWAP1 POP SWAP2 SWAP1 POP JUMP JUMPDEST PUSH32 0x4E487B7100000000000000000000000000000000000000000000000000000000 PUSH1 0x0 MSTORE PUSH1 0x41 PUSH1 0x4 MSTORE PUSH1 0x24 PUSH1 0x0 REVERT JUMPDEST PUSH2 0x404 DUP3 PUSH2 0x3BB JUMP JUMPDEST DUP2 ADD DUP2 DUP2 LT PUSH8 0xFFFFFFFFFFFFFFFF DUP3 GT OR ISZERO PUSH2 0x423 JUMPI PUSH2 0x422 PUSH2 0x3CC JUMP JUMPDEST JUMPDEST DUP1 PUSH1 0x40 MSTORE POP POP POP JUMP JUMPDEST PUSH1 0x0 PUSH2 0x436 PUSH2 0x39D JUMP JUMPDEST SWAP1 POP PUSH2 0x442 DUP3 DUP3 PUSH2 0x3FB JUMP JUMPDEST SWAP2 SWAP1 POP JUMP JUMPDEST PUSH1 0x0 PUSH8 0xFFFFFFFFFFFFFFFF DUP3 GT ISZERO PUSH2 0x462 JUMPI PUSH2 0x461 PUSH2 0x3CC JUMP JUMPDEST JUMPDEST PUSH2 0x46B DUP3 PUSH2 0x3BB JUMP JUMPDEST SWAP1 POP PUSH1 0x20 DUP2 ADD SWAP1 POP SWAP2 SWAP1 POP JUMP JUMPDEST DUP3 DUP2 DUP4 CALLDATACOPY PUSH1 0x0 DUP4 DUP4 ADD MSTORE POP POP POP JUMP JUMPDEST PUSH1 0x0 PUSH2 0x49A PUSH2 0x495 DUP5 PUSH2 0x447 JUMP JUMPDEST PUSH2 0x42C JUMP JUMPDEST SWAP1 POP DUP3 DUP2 MSTORE PUSH1 0x20 DUP2 ADD DUP5 DUP5 DUP5 ADD GT ISZERO PUSH2 0x4B6 JUMPI PUSH2 0x4B5 PUSH2 0x3B6 JUMP JUMPDEST JUMPDEST PUSH2 0x4C1 DUP5 DUP3 DUP6 PUSH2 0x478 JUMP JUMPDEST POP SWAP4 SWAP3 POP POP POP JUMP JUMPDEST PUSH1 0x0 DUP3 PUSH1 0x1F DUP4 ADD SLT PUSH2 0x4DE JUMPI PUSH2 0x4DD PUSH2 0x3B1 JUMP JUMPDEST JUMPDEST DUP2 CALLDATALOAD PUSH2 0x4EE DUP5 DUP3 PUSH1 0x20 DUP7 ADD PUSH2 0x487 JUMP JUMPDEST SWAP2 POP POP SWAP3 SWAP2 POP POP JUMP JUMPDEST PUSH1 0x0 PUSH1 0x20 DUP3 DUP5 SUB SLT ISZERO PUSH2 0x50D JUMPI PUSH2 0x50C PUSH2 0x3A7 JUMP JUMPDEST JUMPDEST PUSH1 0x0 DUP3 ADD CALLDATALOAD PUSH8 0xFFFFFFFFFFFFFFFF DUP2 GT ISZERO PUSH2 0x52B JUMPI PUSH2 0x52A PUSH2 0x3AC JUMP JUMPDEST JUMPDEST PUSH2 0x537 DUP5 DUP3 DUP6 ADD PUSH2 0x4C9 JUMP JUMPDEST SWAP2 POP POP SWAP3 SWAP2 POP POP JUMP JUMPDEST PUSH1 0x0 PUSH20 0xFFFFFFFFFFFFFFFFFFFFFFFFFFFFFFFFFFFFFFFF DUP3 AND SWAP1 POP SWAP2 SWAP1 POP JUMP JUMPDEST PUSH1 0x0 PUSH2 0x56B DUP3 PUSH2 0x540 JUMP JUMPDEST SWAP1 POP SWAP2 SWAP1 POP JUMP JUMPDEST PUSH2 0x57B DUP2 PUSH2 0x560 JUMP JUMPDEST DUP2 EQ PUSH2 0x586 JUMPI PUSH1 0x0 DUP1 REVERT JUMPDEST POP JUMP JUMPDEST PUSH1 0x0 DUP2 CALLDATALOAD SWAP1 POP PUSH2 0x598 DUP2 PUSH2 0x572 JUMP JUMPDEST SWAP3 SWAP2 POP POP JUMP JUMPDEST PUSH1 0x0 DUP1 PUSH1 0x40 DUP4 DUP6 SUB SLT ISZERO PUSH2 0x5B5 JUMPI PUSH2 0x5B4 PUSH2 0x3A7 JUMP JUMPDEST JUMPDEST PUSH1 0x0 DUP4 ADD CALLDATALOAD PUSH8 0xFFFFFFFFFFFFFFFF DUP2 GT ISZERO PUSH2 0x5D3 JUMPI PUSH2 0x5D2 PUSH2 0x3AC JUMP JUMPDEST JUMPDEST PUSH2 0x5DF DUP6 DUP3 DUP7 ADD PUSH2 0x4C9 JUMP JUMPDEST SWAP3 POP POP PUSH1 0x20 PUSH2 0x5F0 DUP6 DUP3 DUP7 ADD PUSH2 0x589 JUMP JUMPDEST SWAP2 POP POP SWAP3 POP SWAP3 SWAP1 POP JUMP JUMPDEST PUSH1 0x0 DUP2 ISZERO ISZERO SWAP1 POP SWAP2 SWAP1 POP JUMP JUMPDEST PUSH2 0x60F DUP2 PUSH2 0x5FA JUMP JUMPDEST DUP3 MSTORE POP POP JUMP JUMPDEST PUSH1 0x0 DUP2 SWAP1 POP SWAP2 SWAP1 POP JUMP JUMPDEST PUSH2 0x628 DUP2 PUSH2 0x615 JUMP JUMPDEST DUP3 MSTORE POP POP JUMP JUMPDEST PUSH1 0x0 PUSH1 0xFF DUP3 AND SWAP1 POP SWAP2 SWAP1 POP JUMP JUMPDEST PUSH2 0x644 DUP2 PUSH2 0x62E JUMP JUMPDEST DUP3 MSTORE POP POP JUMP JUMPDEST PUSH1 0x0 PUSH1 0x60 DUP3 ADD SWAP1 POP PUSH2 0x65F PUSH1 0x0 DUP4 ADD DUP7 PUSH2 0x606 JUMP JUMPDEST PUSH2 0x66C PUSH1 0x20 DUP4 ADD DUP6 PUSH2 0x61F JUMP JUMPDEST PUSH2 0x679 PUSH1 0x40 DUP4 ADD DUP5 PUSH2 0x63B JUMP JUMPDEST SWAP5 SWAP4 POP POP POP POP JUMP JUMPDEST PUSH2 0x68A DUP2 PUSH2 0x615 JUMP JUMPDEST DUP2 EQ PUSH2 0x695 JUMPI PUSH1 0x0 DUP1 REVERT JUMPDEST POP JUMP JUMPDEST PUSH1 0x0 DUP2 CALLDATALOAD SWAP1 POP PUSH2 0x6A7 DUP2 PUSH2 0x681 JUMP JUMPDEST SWAP3 SWAP2 POP POP JUMP JUMPDEST PUSH2 0x6B6 DUP2 PUSH2 0x62E JUMP JUMPDEST DUP2 EQ PUSH2 0x6C1 JUMPI PUSH1 0x0 DUP1 REVERT JUMPDEST POP JUMP JUMPDEST PUSH1 0x0 DUP2 CALLDATALOAD SWAP1 POP PUSH2 0x6D3 DUP2 PUSH2 0x6AD JUMP JUMPDEST SWAP3 SWAP2 POP POP JUMP JUMPDEST PUSH1 0x0 DUP1 PUSH1 0x0 DUP1 PUSH1 0x80 DUP6 DUP8 SUB SLT ISZERO PUSH2 0x6F3 JUMPI PUSH2 0x6F2 PUSH2 0x3A7 JUMP JUMPDEST JUMPDEST PUSH1 0x0 DUP6 ADD CALLDATALOAD PUSH8 0xFFFFFFFFFFFFFFFF DUP2 GT ISZERO PUSH2 0x711 JUMPI PUSH2 0x710 PUSH2 0x3AC JUMP JUMPDEST JUMPDEST PUSH2 0x71D DUP8 DUP3 DUP9 ADD PUSH2 0x4C9 JUMP JUMPDEST SWAP5 POP POP PUSH1 0x20 PUSH2 0x72E DUP8 DUP3 DUP9 ADD PUSH2 0x589 JUMP JUMPDEST SWAP4 POP POP PUSH1 0x40 PUSH2 0x73F DUP8 DUP3 DUP9 ADD PUSH2 0x698 JUMP JUMPDEST SWAP3 POP POP PUSH1 0x60 PUSH2 0x750 DUP8 DUP3 DUP9 ADD PUSH2 0x6C4 JUMP JUMPDEST SWAP2 POP POP SWAP3 SWAP6 SWAP2 SWAP5 POP SWAP3 POP JUMP JUMPDEST PUSH1 0x0 DUP2 MLOAD SWAP1 POP SWAP2 SWAP1 POP JUMP JUMPDEST PUSH1 0x0 DUP2 SWAP1 POP SWAP3 SWAP2 POP POP JUMP JUMPDEST PUSH1 0x0 JUMPDEST DUP4 DUP2 LT ISZERO PUSH2 0x790 JUMPI DUP1 DUP3 ADD MLOAD DUP2 DUP5 ADD MSTORE PUSH1 0x20 DUP2 ADD SWAP1 POP PUSH2 0x775 JUMP JUMPDEST PUSH1 0x0 DUP5 DUP5 ADD MSTORE POP POP POP POP JUMP JUMPDEST PUSH1 0x0 PUSH2 0x7A7 DUP3 PUSH2 0x75C JUMP JUMPDEST PUSH2 0x7B1 DUP2 DUP6 PUSH2 0x767 JUMP JUMPDEST SWAP4 POP PUSH2 0x7C1 DUP2 DUP6 PUSH1 0x20 DUP7 ADD PUSH2 0x772 JUMP JUMPDEST DUP1 DUP5 ADD SWAP2 POP POP SWAP3 SWAP2 POP POP JUMP JUMPDEST PUSH1 0x0 PUSH2 0x7D9 DUP3 DUP5 PUSH2 0x79C JUMP JUMPDEST SWAP2 POP DUP2 SWAP1 POP SWAP3 SWAP2 POP POP JUMP JUMPDEST PUSH1 0x0 PUSH1 0x20 DUP3 ADD SWAP1 POP PUSH2 0x7F9 PUSH1 0x0 DUP4 ADD DUP5 PUSH2 0x606 JUMP JUMPDEST SWAP3 SWAP2 POP POP JUMP JUMPDEST PUSH32 0x4E487B7100000000000000000000000000000000000000000000000000000000 PUSH1 0x0 MSTORE PUSH1 0x11 PUSH1 0x4 MSTORE PUSH1 0x24 PUSH1 0x0 REVERT JUMPDEST PUSH1 0x0 PUSH2 0x839 DUP3 PUSH2 0x615 JUMP JUMPDEST SWAP2 POP PUSH2 0x844 DUP4 PUSH2 0x615 JUMP JUMPDEST SWAP3 POP DUP3 DUP3 MUL PUSH2 0x852 DUP2 PUSH2 0x615 JUMP JUMPDEST SWAP2 POP DUP3 DUP3 DIV DUP5 EQ DUP4 ISZERO OR PUSH2 0x869 JUMPI PUSH2 0x868 PUSH2 0x7FF JUMP JUMPDEST JUMPDEST POP SWAP3 SWAP2 POP POP JUMP JUMPDEST PUSH1 0x0 PUSH2 0x87B DUP3 PUSH2 0x615 JUMP JUMPDEST SWAP2 POP PUSH2 0x886 DUP4 PUSH2 0x615 JUMP JUMPDEST SWAP3 POP DUP3 DUP3 ADD SWAP1 POP DUP1 DUP3 GT ISZERO PUSH2 0x89E JUMPI PUSH2 0x89D PUSH2 0x7FF JUMP JUMPDEST JUMPDEST SWAP3 SWAP2 POP POP JUMP JUMPDEST PUSH1 0x0 PUSH1 0x20 DUP3 ADD SWAP1 POP PUSH2 0x8B9 PUSH1 0x0 DUP4 ADD DUP5 PUSH2 0x63B JUMP JUMPDEST SWAP3 SWAP2 POP POP JUMP INVALID LOG2 PUSH5 0x6970667358 0x22 SLT KECCAK256 COINBASE 0x24 0x2D CALLER 0xCC 0xD8 PUSH1 0x53 0xED SWAP7 CALLER CALLER JUMPI DUP13 0xD7 0x2F 0xA5 0x22 BASEFEE 0xB6 0xFC SWAP1 COINBASE DUP4 PUSH29 0x3D159F17CEE83164736F6C634300081800330000000000000000000000 "},"methodIdentifiers":{"documentPermissions(string,address)":"84c30716","grantAccess(string,address,uint256,uint8)":"d531f383","verifyDocumentAccess(string)":"2d7107f8"}}}}}