{"contracts/delegationHub.sol":{"DelegationHub":{"abi":[{"anonymous":false,"inputs":[{"indexed":false,"internalType":"string","name":"txHash","type":"string"},{"indexed":true,"internalType":"address","name":"requestor","type":"address"},{"indexed":false,"internalType":"bool","name":"allowed","type":"bool"}],"name":"AccessCheckResult","type":"event"},{"anonymous":false,"inputs":[{"indexed":true,"internalType":"string","name":"txHash","type":"string"},{"indexed":true,"internalType":"address","name":"user","type":"address"},{"indexed":false,"internalType":"uint8","name":"level","type":"uint8"}],"name":"AccessGranted","type":"event"},{"inputs":[{"internalType":"string","name":"","type":"string"},{"internalType":"address","name":"","type":"address"}],"name":"documentPermissions","outputs":[{"internalType":"bool","name":"isValid","type":"bool"},{"internalType":"uint256","name":"expiryTime","type":"uint256"},{"internalType":"uint8","name":"delegationDepth","type":"uint8"}],"stateMutability":"view","type":"function"},{"inputs":[{"internalType":"string","name":"_txHash","type":"string"},{"internalType":"address","name":"_delegate","type":"address"},{"internalType":"uint256","name":"_secondsDuration","type":"uint256"},{"internalType":"uint8","name":"_depth","type":"uint8"}],"name":"grantAccess","outputs":[],"stateMutability":"nonpayable","type":"function"},{"inputs":[{"internalType":"string","name":"_txHash","type":"string"}],"name":"verifyDocumentAccess","outputs":[],"stateMutability":"nonpayable","type":"function"}],"evm":{"bytecode":{"linkReferences":{},"object":"608060405234801561001057600080fd5b506108f2806100206000396000f3fe608060405234801561001057600080fd5b50600436106100415760003560e01c80632d7107f81461004657806384c3071614610062578063d531f38314610094575b600080fd5b610060600480360381019061005b91906104d7565b6100b0565b005b61007c6004803603810190610077919061057e565b6101d1565b60405161008b9392919061062a565b60405180910390f35b6100ae60048036038101906100a991906106b9565b610238565b005b600080826040516100c191906107ad565b908152602001604051809103902060003373ffffffffffffffffffffffffffffffffffffffff1673ffffffffffffffffffffffffffffffffffffffff1681526020019081526020016000206040518060600160405290816000820160009054906101000a900460ff16151515158152602001600182015481526020016002820160009054906101000a900460ff1660ff1660ff16815250509050600081600001518015610172575081602001514211155b1561017c57600190505b3373ffffffffffffffffffffffffffffffffffffffff167f9614d34f8db3d9931f2c0351c5d125d53573a18874766926a6b1d93cfba4ce0784836040516101c492919061080e565b60405180910390a2505050565b600082805160208101820180518482526020830160208501208183528095505050505050602052806000526040600020600091509150508060000160009054906101000a900460ff16908060010154908060020160009054906101000a900460ff16905083565b60008242610246919061086d565b905060405180606001604052806001151581526020018281526020018360ff1681525060008660405161027991906107ad565b908152602001604051809103902060008673ffffffffffffffffffffffffffffffffffffffff1673ffffffffffffffffffffffffffffffffffffffff16815260200190815260200160002060008201518160000160006101000a81548160ff0219169083151502179055506020820151816001015560408201518160020160006101000a81548160ff021916908360ff1602179055509050508373ffffffffffffffffffffffffffffffffffffffff168560405161033791906107ad565b60405180910390207f115f6ef52391618892f3a77f23446f2b996b12f28b601e7d85f2b8d372436c718460405161036e91906108a1565b60405180910390a35050505050565b6000604051905090565b600080fd5b600080fd5b600080fd5b600080fd5b6000601f19601f8301169050919050565b7f4e487b7100000000000000000000000000000000000000000000000000000000600052604160045260246000fd5b6103e48261039b565b810181811067ffffffffffffffff82111715610403576104026103ac565b5b80604052505050565b600061041661037d565b905061042282826103db565b919050565b600067ffffffffffffffff821115610442576104416103ac565b5b61044b8261039b565b9050602081019050919050565b82818337600083830152505050565b600061047a61047584610427565b61040c565b90508281526020810184848401111561049657610495610396565b5b6104a1848285610458565b509392505050565b600082601f8301126104be576104bd610391565b5b81356104ce848260208601610467565b91505092915050565b6000602082840312156104ed576104ec610387565b5b600082013567ffffffffffffffff81111561050b5761050a61038c565b5b610517848285016104a9565b91505092915050565b600073ffffffffffffffffffffffffffffffffffffffff82169050919050565b600061054b82610520565b9050919050565b61055b81610540565b811461056657600080fd5b50565b60008135905061057881610552565b92915050565b6000806040838503121561059557610594610387565b5b600083013567ffffffffffffffff8111156105b3576105b261038c565b5b6105bf858286016104a9565b92505060206105d085828601610569565b9150509250929050565b60008115159050919050565b6105ef816105da565b82525050565b6000819050919050565b610608816105f5565b82525050565b600060ff82169050919050565b6106248161060e565b82525050565b600060608201905061063f60008301866105e6565b61064c60208301856105ff565b610659604083018461061b565b949350505050565b61066a816105f5565b811461067557600080fd5b50565b60008135905061068781610661565b92915050565b6106968161060e565b81146106a157600080fd5b50565b6000813590506106b38161068d565b92915050565b600080600080608085870312156106d3576106d2610387565b5b600085013567ffffffffffffffff8111156106f1576106f061038c565b5b6106fd878288016104a9565b945050602061070e87828801610569565b935050604061071f87828801610678565b9250506060610730878288016106a4565b91505092959194509250565b600081519050919050565b600081905092915050565b60005b83811015610770578082015181840152602081019050610755565b60008484015250505050565b60006107878261073c565b6107918185610747565b93506107a1818560208601610752565b80840191505092915050565b60006107b9828461077c565b915081905092915050565b600082825260208201905092915050565b60006107e08261073c565b6107ea81856107c4565b93506107fa818560208601610752565b6108038161039b565b840191505092915050565b6000604082019050818103600083015261082881856107d5565b905061083760208301846105e6565b9392505050565b7f4e487b7100000000000000000000000000000000000000000000000000000000600052601160045260246000fd5b6000610878826105f5565b9150610883836105f5565b925082820190508082111561089b5761089a61083e565b5b92915050565b60006020820190506108b6600083018461061b565b9291505056fea26469706673582212201c405158cbc93e83f259eadd1249749c60a8f9617963289e4b00bf453cd2625a64736f6c63430008180033","opcodes":"PUSH1 0x80 PUSH1 0x40 MSTORE CALLVALUE DUP1 ISZERO PUSH2 0x10 JUMPI PUSH1 0x0 DUP1 REVERT JUMPDEST POP PUSH2 0x8F2 DUP1 PUSH2 0x20 PUSH1 0x0 CODECOPY PUSH1 0x0 RETURN INVALID PUSH1 0x80 PUSH1 0x40 MSTORE CALLVALUE DUP1 ISZERO PUSH2 0x10 JUMPI PUSH1 0x0 DUP1 REVERT JUMPDEST POP PUSH1 0x4 CALLDATASIZE LT PUSH2 0x41 JUMPI PUSH1 0x0 CALLDATALOAD PUSH1 0xE0 SHR DUP1 PUSH4 0x2D7107F8 EQ PUSH2 0x46 JUMPI DUP1 PUSH4 0x84C30716 EQ PUSH2 0x62 JUMPI DUP1 PUSH4 0xD531F383 EQ PUSH2 0x94 JUMPI JUMPDEST PUSH1 0x0 DUP1 REVERT JUMPDEST PUSH2 0x60 PUSH1 0x4 DUP1 CALLDATASIZE SUB DUP2 ADD SWAP1 PUSH2 0x5B SWAP2 SWAP1 PUSH2 0x4D7 JUMP JUMPDEST PUSH2 0xB0 JUMP JUMPDEST STOP JUMPDEST PUSH2 0x7C PUSH1 0x4 DUP1 CALLDATASIZE SUB DUP2 ADD SWAP1 PUSH2 0x77 SWAP2 SWAP1 PUSH2 0x57E JUMP JUMPDEST PUSH2 0x1D1 JUMP JUMPDEST PUSH1 0x40 MLOAD PUSH2 0x8B SWAP4 SWAP3 SWAP2 SWAP1 PUSH2 0x62A JUMP JUMPDEST PUSH1 0x40 MLOAD DUP1 SWAP2 SUB SWAP1 RETURN JUMPDEST PUSH2 0xAE PUSH1 0x4 DUP1 CALLDATASIZE SUB DUP2 ADD SWAP1 PUSH2 0xA9 SWAP2 SWAP1 PUSH2 0x6B9 JUMP JUMPDEST PUSH2 0x238 JUMP JUMPDEST STOP JUMPDEST PUSH1 0x0 DUP1 DUP3 PUSH1 0x40 MLOAD PUSH2 0xC1 SWAP2 SWAP1 PUSH2 0x7AD JUMP JUMPDEST SWAP1 DUP2 MSTORE PUSH1 0x20 ADD PUSH1 0x40 MLOAD DUP1 SWAP2 SUB SWAP1 KECCAK256 PUSH1 0x0 CALLER PUSH20 0xFFFFFFFFFFFFFFFFFFFFFFFFFFFFFFFFFFFFFFFF AND PUSH20 0xFFFFFFFFFFFFFFFFFFFFFFFFFFFFFFFFFFFFFFFF AND DUP2 MSTORE PUSH1 0x20 ADD SWAP1 DUP2 MSTORE PUSH1 0x20 ADD PUSH1 0x0 KECCAK256 PUSH1 0x40 MLOAD DUP1 PUSH1 0x60 ADD PUSH1 0x40 MSTORE SWAP1 DUP2 PUSH1 0x0 DUP3 ADD PUSH1 0x0 SWAP1 SLOAD SWAP1 PUSH2 0x100 EXP SWAP1 DIV PUSH1 0xFF AND ISZERO ISZERO ISZERO ISZERO DUP2 MSTORE PUSH1 0x20 ADD PUSH1 0x1 DUP3 ADD SLOAD DUP2 MSTORE PUSH1 0x20 ADD PUSH1 0x2 DUP3 ADD PUSH1 0x0 SWAP1 SLOAD SWAP1 PUSH2 0x100 EXP SWAP1 DIV PUSH1 0xFF AND PUSH1 0xFF AND PUSH1 0xFF AND DUP2 MSTORE POP POP SWAP1 POP PUSH1 0x0 DUP2 PUSH1 0x0 ADD MLOAD DUP1 ISZERO PUSH2 0x172 JUMPI POP DUP2 PUSH1 0x20 ADD MLOAD TIMESTAMP GT ISZERO JUMPDEST ISZERO PUSH2 0x17C JUMPI PUSH1 0x1 SWAP1 POP JUMPDEST CALLER PUSH20 0xFFFFFFFFFFFFFFFFFFFFFFFFFFFFFFFFFFFFFFFF AND PUSH32 0x9614D34F8DB3D9931F2C0351C5D125D53573A18874766926A6B1D93CFBA4CE07 DUP5 DUP4 PUSH1 0x40 MLOAD PUSH2 0x1C4 SWAP3 SWAP2 SWAP1 PUSH2 0x80E JUMP JUMPDEST PUSH1 0x40 MLOAD DUP1 SWAP2 SUB SWAP1 LOG2 POP POP POP JUMP JUMPDEST PUSH1 0x0 DUP3 DUP1 MLOAD PUSH1 0x20 DUP2 ADD DUP3 ADD DUP1 MLOAD DUP5 DUP3 MSTORE PUSH1 0x20 DUP4 ADD PUSH1 0x20 DUP6 ADD KECCAK256 DUP2 DUP4 MSTORE DUP1 SWAP6 POP POP POP POP POP POP PUSH1 0x20 MSTORE DUP1 PUSH1 0x0 MSTORE PUSH1 0x40 PUSH1 0x0 KECCAK256 PUSH1 0x0 SWAP2 POP SWAP2 POP POP DUP1 PUSH1 0x0 ADD PUSH1 0x0 SWAP1 SLOAD SWAP1 PUSH2 0x100 EXP SWAP1 DIV PUSH1 0xFF AND SWAP1 DUP1 PUSH1 0x1 ADD SLOAD SWAP1 DUP1 PUSH1 0x2 ADD PUSH1 0x0 SWAP1 SLOAD SWAP1 PUSH2 0x100 EXP SWAP1 DIV PUSH1 0xFF AND SWAP1 POP DUP4 JUMP JUMPDEST PUSH1 0x0 DUP3 TIMESTAMP PUSH2 0x246 SWAP2 SWAP1 PUSH2 0x86D JUMP JUMPDEST SWAP1 POP PUSH1 0x40 MLOAD DUP1 PUSH1 0x60 ADD PUSH1 0x40 MSTORE DUP1 PUSH1 0x1 ISZERO ISZERO DUP2 MSTORE PUSH1 0x20 ADD DUP3 DUP2 MSTORE PUSH1 0x20 ADD DUP4 PUSH1 0xFF AND DUP2 MSTORE POP PUSH1 0x0 DUP7 PUSH1 0x40 MLOAD PUSH2 0x279 SWAP2 SWAP1 PUSH2 0x7AD JUMP JUMPDEST SWAP1 DUP2 MSTORE PUSH1 0x20 ADD PUSH1 0x40 MLOAD DUP1 SWAP2 SUB SWAP1 KECCAK256 PUSH1 0x0 DUP7 PUSH20 0xFFFFFFFFFFFFFFFFFFFFFFFFFFFFFFFFFFFFFFFF AND PUSH20 0xFFFFFFFFFFFFFFFFFFFFFFFFFFFFFFFFFFFFFFFF AND DUP2 MSTORE PUSH1 0x20 ADD SWAP1 DUP2 MSTORE PUSH1 0x20 ADD PUSH1 0x0 KECCAK256 PUSH1 0x0 DUP3 ADD MLOAD DUP2 PUSH1 0x0 ADD PUSH1 0x0 PUSH2 0x100 EXP DUP2 SLOAD DUP2 PUSH1 0xFF MUL NOT AND SWAP1 DUP4 ISZERO ISZERO MUL OR SWAP1 SSTORE POP PUSH1 0x20 DUP3 ADD MLOAD DUP2 PUSH1 0x1 ADD SSTORE PUSH1 0x40 DUP3 ADD MLOAD DUP2 PUSH1 0x2 ADD PUSH1 0x0 PUSH2 0x100 EXP DUP2 SLOAD DUP2 PUSH1 0xFF MUL NOT AND SWAP1 DUP4 PUSH1 0xFF AND MUL OR SWAP1 SSTORE POP SWAP1 POP POP DUP4 PUSH20 0xFFFFFFFFFFFFFFFFFFFFFFFFFFFFFFFFFFFFFFFF AND DUP6 PUSH1 0x40 MLOAD PUSH2 0x337 SWAP2 SWAP1 PUSH2 0x7AD JUMP JUMPDEST PUSH1 0x40 MLOAD DUP1 SWAP2 SUB SWAP1 KECCAK256 PUSH32 0x115F6EF52391618892F3A77F23446F2B996B12F28B601E7D85F2B8D372436C71 DUP5 PUSH1 0x40 MLOAD PUSH2 0x36E SWAP2 SWAP1 PUSH2 0x8A1 JUMP JUMPDEST PUSH1 0x40 MLOAD DUP1 SWAP2 SUB SWAP1 LOG3 POP POP POP POP POP JUMP JUMPDEST PUSH1 0x0 PUSH1 0x40 MLOAD SWAP1 POP SWAP1 JUMP JUMPDEST PUSH1 0x0 DUP1 REVERT JUMPDEST PUSH1 0x0 DUP1 REVERT JUMPDEST PUSH1 0x0 DUP1 REVERT JUMPDEST PUSH1 0x0 DUP1 REVERT JUMPDEST PUSH1 0x0 PUSH1 0x1F NOT PUSH1 0x1F DUP4 ADD AND SWAP1 POP SWAP2 SWAP1 POP JUMP JUMPDEST PUSH32 0x4E487B7100000000000000000000000000000000000000000000000000000000 PUSH1 0x0 MSTORE PUSH1 0x41 PUSH1 0x4 MSTORE PUSH1 0x24 PUSH1 0x0 REVERT JUMPDEST PUSH2 0x3E4 DUP3 PUSH2 0x39B JUMP JUMPDEST DUP2 ADD DUP2 DUP2 LT PUSH8 0xFFFFFFFFFFFFFFFF DUP3 GT OR ISZERO PUSH2 0x403 JUMPI PUSH2 0x402 PUSH2 0x3AC JUMP JUMPDEST JUMPDEST DUP1 PUSH1 0x40 MSTORE POP POP POP JUMP JUMPDEST PUSH1 0x0 PUSH2 0x416 PUSH2 0x37D JUMP JUMPDEST SWAP1 POP PUSH2 0x422 DUP3 DUP3 PUSH2 0x3DB JUMP JUMPDEST SWAP2 SWAP1 POP JUMP JUMPDEST PUSH1 0x0 PUSH8 0xFFFFFFFFFFFFFFFF DUP3 GT ISZERO PUSH2 0x442 JUMPI PUSH2 0x441 PUSH2 0x3AC JUMP JUMPDEST JUMPDEST PUSH2 0x44B DUP3 PUSH2 0x39B JUMP JUMPDEST SWAP1 POP PUSH1 0x20 DUP2 ADD SWAP1 POP SWAP2 SWAP1 POP JUMP JUMPDEST DUP3 DUP2 DUP4 CALLDATACOPY PUSH1 0x0 DUP4 DUP4 ADD MSTORE POP POP POP JUMP JUMPDEST PUSH1 0x0 PUSH2 0x47A PUSH2 0x475 DUP5 PUSH2 0x427 JUMP JUMPDEST PUSH2 0x40C JUMP JUMPDEST SWAP1 POP DUP3 DUP2 MSTORE PUSH1 0x20 DUP2 ADD DUP5 DUP5 DUP5 ADD GT ISZERO PUSH2 0x496 JUMPI PUSH2 0x495 PUSH2 0x396 JUMP JUMPDEST JUMPDEST PUSH2 0x4A1 DUP5 DUP3 DUP6 PUSH2 0x458 JUMP JUMPDEST POP SWAP4 SWAP3 POP POP POP JUMP JUMPDEST PUSH1 0x0 DUP3 PUSH1 0x1F DUP4 ADD SLT PUSH2 0x4BE JUMPI PUSH2 0x4BD PUSH2 0x391 JUMP JUMPDEST JUMPDEST DUP2 CALLDATALOAD PUSH2 0x4CE DUP5 DUP3 PUSH1 0x20 DUP7 ADD PUSH2 0x467 JUMP JUMPDEST SWAP2 POP POP SWAP3 SWAP2 POP POP JUMP JUMPDEST PUSH1 0x0 PUSH1 0x20 DUP3 DUP5 SUB SLT ISZERO PUSH2 0x4ED JUMPI PUSH2 0x4EC PUSH2 0x387 JUMP JUMPDEST JUMPDEST PUSH1 0x0 DUP3 ADD CALLDATALOAD PUSH8 0xFFFFFFFFFFFFFFFF DUP2 GT ISZERO PUSH2 0x50B JUMPI PUSH2 0x50A PUSH2 0x38C JUMP JUMPDEST JUMPDEST PUSH2 0x517 DUP5 DUP3 DUP6 ADD PUSH2 0x4A9 JUMP JUMPDEST SWAP2 POP POP SWAP3 SWAP2 POP POP JUMP JUMPDEST PUSH1 0x0 PUSH20 0xFFFFFFFFFFFFFFFFFFFFFFFFFFFFFFFFFFFFFFFF DUP3 AND SWAP1 POP SWAP2 SWAP1 POP JUMP JUMPDEST PUSH1 0x0 PUSH2 0x54B DUP3 PUSH2 0x520 JUMP JUMPDEST SWAP1 POP SWAP2 SWAP1 POP JUMP JUMPDEST PUSH2 0x55B DUP2 PUSH2 0x540 JUMP JUMPDEST DUP2 EQ PUSH2 0x566 JUMPI PUSH1 0x0 DUP1 REVERT JUMPDEST POP JUMP JUMPDEST PUSH1 0x0 DUP2 CALLDATALOAD SWAP1 POP PUSH2 0x578 DUP2 PUSH2 0x552 JUMP JUMPDEST SWAP3 SWAP2 POP POP JUMP JUMPDEST PUSH1 0x0 DUP1 PUSH1 0x40 DUP4 DUP6 SUB SLT ISZERO PUSH2 0x595 JUMPI PUSH2 0x594 PUSH2 0x387 JUMP JUMPDEST JUMPDEST PUSH1 0x0 DUP4 ADD CALLDATALOAD PUSH8 0xFFFFFFFFFFFFFFFF DUP2 GT ISZERO PUSH2 0x5B3 JUMPI PUSH2 0x5B2 PUSH2 0x38C JUMP JUMPDEST JUMPDEST PUSH2 0x5BF DUP6 DUP3 DUP7 ADD PUSH2 0x4A9 JUMP JUMPDEST SWAP3 POP POP PUSH1 0x20 PUSH2 0x5D0 DUP6 DUP3 DUP7 ADD PUSH2 0x569 JUMP JUMPDEST SWAP2 POP POP SWAP3 POP SWAP3 SWAP1 POP JUMP JUMPDEST PUSH1 0x0 DUP2 ISZERO ISZERO SWAP1 POP SWAP2 SWAP1 POP JUMP JUMPDEST PUSH2 0x5EF DUP2 PUSH2 0x5DA JUMP JUMPDEST DUP3 MSTORE POP POP JUMP JUMPDEST PUSH1 0x0 DUP2 SWAP1 POP SWAP2 SWAP1 POP JUMP JUMPDEST PUSH2 0x608 DUP2 PUSH2 0x5F5 JUMP JUMPDEST DUP3 MSTORE POP POP JUMP JUMPDEST PUSH1 0x0 PUSH1 0xFF DUP3 AND SWAP1 POP SWAP2 SWAP1 POP JUMP JUMPDEST PUSH2 0x624 DUP2 PUSH2 0x60E JUMP JUMPDEST DUP3 MSTORE POP POP JUMP JUMPDEST PUSH1 0x0 PUSH1 0x60 DUP3 ADD SWAP1 POP PUSH2 0x63F PUSH1 0x0 DUP4 ADD DUP7 PUSH2 0x5E6 JUMP JUMPDEST PUSH2 0x64C PUSH1 0x20 DUP4 ADD DUP6 PUSH2 0x5FF JUMP JUMPDEST PUSH2 0x659 PUSH1 0x40 DUP4 ADD DUP5 PUSH2 0x61B JUMP JUMPDEST SWAP5 SWAP4 POP POP POP POP JUMP JUMPDEST PUSH2 0x66A DUP2 PUSH2 0x5F5 JUMP JUMPDEST DUP2 EQ PUSH2 0x675 JUMPI PUSH1 0x0 DUP1 REVERT JUMPDEST POP JUMP JUMPDEST PUSH1 0x0 DUP2 CALLDATALOAD SWAP1 POP PUSH2 0x687 DUP2 PUSH2 0x661 JUMP JUMPDEST SWAP3 SWAP2 POP POP JUMP JUMPDEST PUSH2 0x696 DUP2 PUSH2 0x60E JUMP JUMPDEST DUP2 EQ PUSH2 0x6A1 JUMPI PUSH1 0x0 DUP1 REVERT JUMPDEST POP JUMP JUMPDEST PUSH1 0x0 DUP2 CALLDATALOAD SWAP1 POP PUSH2 0x6B3 DUP2 PUSH2 0x68D JUMP JUMPDEST SWAP3 SWAP2 POP POP JUMP JUMPDEST PUSH1 0x0 DUP1 PUSH1 0x0 DUP1 PUSH1 0x80 DUP6 DUP8 SUB SLT ISZERO PUSH2 0x6D3 JUMPI PUSH2 0x6D2 PUSH2 0x387 JUMP JUMPDEST JUMPDEST PUSH1 0x0 DUP6 ADD CALLDATALOAD PUSH8 0xFFFFFFFFFFFFFFFF DUP2 GT ISZERO PUSH2 0x6F1 JUMPI PUSH2 0x6F0 PUSH2 0x38C JUMP JUMPDEST JUMPDEST PUSH2 0x6FD DUP8 DUP3 DUP9 ADD PUSH2 0x4A9 JUMP JUMPDEST SWAP5 POP POP PUSH1 0x20 PUSH2 0x70E DUP8 DUP3 DUP9 ADD PUSH2 0x569 JUMP JUMPDEST SWAP4 POP POP PUSH1 0x40 PUSH2 0x71F DUP8 DUP3 DUP9 ADD PUSH2 0x678 JUMP JUMPDEST SWAP3 POP POP PUSH1 0x60 PUSH2 0x730 DUP8 DUP3 DUP9 ADD PUSH2 0x6A4 JUMP JUMPDEST SWAP2 POP POP SWAP3 SWAP6 SWAP2 SWAP5 POP SWAP3 POP JUMP JUMPDEST PUSH1 0x0 DUP2 MLOAD SWAP1 POP SWAP2 SWAP1 POP JUMP JUMPDEST PUSH1 0x0 DUP2 SWAP1 POP SWAP3 SWAP2 POP POP JUMP JUMPDEST PUSH1 0x0 JUMPDEST DUP4 DUP2 LT ISZERO PUSH2 0x770 JUMPI DUP1 DUP3 ADD MLOAD DUP2 DUP5 ADD MSTORE PUSH1 0x20 DUP2 ADD SWAP1 POP PUSH2 0x755 JUMP JUMPDEST PUSH1 0x0 DUP5 DUP5 ADD MSTORE POP POP POP POP JUMP JUMPDEST PUSH1 0x0 PUSH2 0x787 DUP3 PUSH2 0x73C JUMP JUMPDEST PUSH2 0x791 DUP2 DUP6 PUSH2 0x747 JUMP JUMPDEST SWAP4 POP PUSH2 0x7A1 DUP2 DUP6 PUSH1 0x20 DUP7 ADD PUSH2 0x752 JUMP JUMPDEST DUP1 DUP5 ADD SWAP2 POP POP SWAP3 SWAP2 POP POP JUMP JUMPDEST PUSH1 0x0 PUSH2 0x7B9 DUP3 DUP5 PUSH2 0x77C JUMP JUMPDEST SWAP2 POP DUP2 SWAP1 POP SWAP3 SWAP2 POP POP JUMP JUMPDEST PUSH1 0x0 DUP3 DUP3 MSTORE PUSH1 0x20 DUP3 ADD SWAP1 POP SWAP3 SWAP2 POP POP JUMP JUMPDEST PUSH1 0x0 PUSH2 0x7E0 DUP3 PUSH2 0x73C JUMP JUMPDEST PUSH2 0x7EA DUP2 DUP6 PUSH2 0x7C4 JUMP JUMPDEST SWAP4 POP PUSH2 0x7FA DUP2 DUP6 PUSH1 0x20 DUP7 ADD PUSH2 0x752 JUMP JUMPDEST PUSH2 0x803 DUP2 PUSH2 0x39B JUMP JUMPDEST DUP5 ADD SWAP2 POP POP SWAP3 SWAP2 POP POP JUMP JUMPDEST PUSH1 0x0 PUSH1 0x40 DUP3 ADD SWAP1 POP DUP2 DUP2 SUB PUSH1 0x0 DUP4 ADD MSTORE PUSH2 0x828 DUP2 DUP6 PUSH2 0x7D5 JUMP JUMPDEST SWAP1 POP PUSH2 0x837 PUSH1 0x20 DUP4 ADD DUP5 PUSH2 0x5E6 JUMP JUMPDEST SWAP4 SWAP3 POP POP POP JUMP JUMPDEST PUSH32 0x4E487B7100000000000000000000000000000000000000000000000000000000 PUSH1 0x0 MSTORE PUSH1 0x11 PUSH1 0x4 MSTORE PUSH1 0x24 PUSH1 0x0 REVERT JUMPDEST PUSH1 0x0 PUSH2 0x878 DUP3 PUSH2 0x5F5 JUMP JUMPDEST SWAP2 POP PUSH2 0x883 DUP4 PUSH2 0x5F5 JUMP JUMPDEST SWAP3 POP DUP3 DUP3 ADD SWAP1 POP DUP1 DUP3 GT ISZERO PUSH2 0x89B JUMPI PUSH2 0x89A PUSH2 0x83E JUMP JUMPDEST JUMPDEST SWAP3 SWAP2 POP POP JUMP JUMPDEST PUSH1 0x0 PUSH1 0x20 DUP3 ADD SWAP1 POP PUSH2 0x8B6 PUSH1 0x0 DUP4 ADD DUP5 PUSH2 0x61B JUMP JUMPDEST SWAP3 SWAP2 POP POP JUMP INVALID LOG2 PUSH5 0x6970667358 0x22 SLT KECCAK256 SHR BLOCKHASH MLOAD PC 0xCB 0xC9 RETURNDATACOPY DUP4 CALLCODE MSIZE 0xEA 0xDD SLT BLOBHASH PUSH21 0x9C60A8F9617963289E4B00BF453CD2625A64736F6C PUSH4 0x43000818 STOP CALLER "},"methodIdentifiers":{"documentPermissions(string,address)":"84c30716","grantAccess(string,address,uint256,uint8)":"d531f383","verifyDocumentAccess(string)":"2d7107f8"}}}}}